{
  "_format": "hh3-artifact-1",
  "contractName": "Reporting",
  "sourceName": "contracts/Reporting.sol",
  "abi": [
    {
      "inputs": [],
      "stateMutability": "nonpayable",
      "type": "constructor"
    },
    {
      "inputs": [],
      "name": "EmptyCID",
      "type": "error"
    },
    {
      "inputs": [],
      "name": "InvalidHash",
      "type": "error"
    },
    {
      "inputs": [],
      "name": "InvalidNullifier",
      "type": "error"
    },
    {
      "inputs": [],
      "name": "InvalidPagination",
      "type": "error"
    },
    {
      "inputs": [],
      "name": "InvalidPseudonym",
      "type": "error"
    },
    {
      "inputs": [],
      "name": "InvalidReportId",
      "type": "error"
    },
    {
      "inputs": [],
      "name": "InvalidState",
      "type": "error"
    },
    {
      "inputs": [],
      "name": "NullifierAlreadyUsed",
      "type": "error"
    },
    {
      "inputs": [
        {
          "internalType": "address",
          "name": "owner",
          "type": "address"
        }
      ],
      "name": "OwnableInvalidOwner",
      "type": "error"
    },
    {
      "inputs": [
        {
          "internalType": "address",
          "name": "account",
          "type": "address"
        }
      ],
      "name": "OwnableUnauthorizedAccount",
      "type": "error"
    },
    {
      "inputs": [],
      "name": "ReentrancyGuardReentrantCall",
      "type": "error"
    },
    {
      "inputs": [],
      "name": "Unauthorized",
      "type": "error"
    },
    {
      "inputs": [],
      "name": "VotingWindowClosed",
      "type": "error"
    },
    {
      "inputs": [],
      "name": "VotingWindowStillOpen",
      "type": "error"
    },
    {
      "anonymous": false,
      "inputs": [
        {
          "indexed": true,
          "internalType": "address",
          "name": "previousOwner",
          "type": "address"
        },
        {
          "indexed": true,
          "internalType": "address",
          "name": "newOwner",
          "type": "address"
        }
      ],
      "name": "OwnershipTransferred",
      "type": "event"
    },
    {
      "anonymous": false,
      "inputs": [
        {
          "indexed": true,
          "internalType": "uint256",
          "name": "reportId",
          "type": "uint256"
        },
        {
          "indexed": true,
          "internalType": "address",
          "name": "authority",
          "type": "address"
        },
        {
          "indexed": false,
          "internalType": "uint256",
          "name": "timestamp",
          "type": "uint256"
        }
      ],
      "name": "ReportMarkedSolved",
      "type": "event"
    },
    {
      "anonymous": false,
      "inputs": [
        {
          "indexed": true,
          "internalType": "uint256",
          "name": "reportId",
          "type": "uint256"
        },
        {
          "indexed": true,
          "internalType": "address",
          "name": "authority",
          "type": "address"
        },
        {
          "indexed": false,
          "internalType": "uint256",
          "name": "timestamp",
          "type": "uint256"
        }
      ],
      "name": "ReportRejectedByAuthority",
      "type": "event"
    },
    {
      "anonymous": false,
      "inputs": [
        {
          "indexed": true,
          "internalType": "uint256",
          "name": "reportId",
          "type": "uint256"
        },
        {
          "indexed": false,
          "internalType": "enum Reporting.ReportStatus",
          "name": "previousStatus",
          "type": "uint8"
        },
        {
          "indexed": false,
          "internalType": "enum Reporting.ReportStatus",
          "name": "newStatus",
          "type": "uint8"
        },
        {
          "indexed": false,
          "internalType": "uint256",
          "name": "timestamp",
          "type": "uint256"
        }
      ],
      "name": "ReportStatusChanged",
      "type": "event"
    },
    {
      "anonymous": false,
      "inputs": [
        {
          "indexed": true,
          "internalType": "uint256",
          "name": "reportId",
          "type": "uint256"
        },
        {
          "indexed": false,
          "internalType": "string",
          "name": "ipfsCid",
          "type": "string"
        },
        {
          "indexed": true,
          "internalType": "bytes32",
          "name": "reportHash",
          "type": "bytes32"
        },
        {
          "indexed": true,
          "internalType": "bytes32",
          "name": "submissionNullifier",
          "type": "bytes32"
        },
        {
          "indexed": false,
          "internalType": "bytes32",
          "name": "citizenPseudonym",
          "type": "bytes32"
        },
        {
          "indexed": false,
          "internalType": "uint256",
          "name": "timestamp",
          "type": "uint256"
        }
      ],
      "name": "ReportSubmitted",
      "type": "event"
    },
    {
      "anonymous": false,
      "inputs": [
        {
          "indexed": true,
          "internalType": "uint256",
          "name": "reportId",
          "type": "uint256"
        },
        {
          "indexed": true,
          "internalType": "bytes32",
          "name": "voteNullifier",
          "type": "bytes32"
        },
        {
          "indexed": false,
          "internalType": "bool",
          "name": "support",
          "type": "bool"
        },
        {
          "indexed": false,
          "internalType": "uint256",
          "name": "upvotes",
          "type": "uint256"
        },
        {
          "indexed": false,
          "internalType": "uint256",
          "name": "downvotes",
          "type": "uint256"
        }
      ],
      "name": "ValidationVoteCast",
      "type": "event"
    },
    {
      "anonymous": false,
      "inputs": [
        {
          "indexed": true,
          "internalType": "uint256",
          "name": "reportId",
          "type": "uint256"
        },
        {
          "indexed": false,
          "internalType": "enum Reporting.ReportStatus",
          "name": "previousStatus",
          "type": "uint8"
        },
        {
          "indexed": false,
          "internalType": "enum Reporting.ReportStatus",
          "name": "newStatus",
          "type": "uint8"
        },
        {
          "indexed": false,
          "internalType": "uint256",
          "name": "timestamp",
          "type": "uint256"
        }
      ],
      "name": "VotingWindowFinalized",
      "type": "event"
    },
    {
      "anonymous": false,
      "inputs": [
        {
          "indexed": true,
          "internalType": "uint256",
          "name": "reportId",
          "type": "uint256"
        },
        {
          "indexed": true,
          "internalType": "address",
          "name": "authority",
          "type": "address"
        },
        {
          "indexed": false,
          "internalType": "uint256",
          "name": "timestamp",
          "type": "uint256"
        }
      ],
      "name": "WorkStarted",
      "type": "event"
    },
    {
      "inputs": [
        {
          "internalType": "uint256",
          "name": "",
          "type": "uint256"
        }
      ],
      "name": "authoritiesList",
      "outputs": [
        {
          "internalType": "address",
          "name": "",
          "type": "address"
        }
      ],
      "stateMutability": "view",
      "type": "function"
    },
    {
      "inputs": [
        {
          "internalType": "address",
          "name": "",
          "type": "address"
        }
      ],
      "name": "authorizedAuthorities",
      "outputs": [
        {
          "internalType": "bool",
          "name": "",
          "type": "bool"
        }
      ],
      "stateMutability": "view",
      "type": "function"
    },
    {
      "inputs": [
        {
          "internalType": "address",
          "name": "",
          "type": "address"
        }
      ],
      "name": "authorizedRelayers",
      "outputs": [
        {
          "internalType": "bool",
          "name": "",
          "type": "bool"
        }
      ],
      "stateMutability": "view",
      "type": "function"
    },
    {
      "inputs": [
        {
          "internalType": "uint256",
          "name": "offset",
          "type": "uint256"
        },
        {
          "internalType": "uint256",
          "name": "limit",
          "type": "uint256"
        }
      ],
      "name": "getAllReports",
      "outputs": [
        {
          "components": [
            {
              "internalType": "uint256",
              "name": "id",
              "type": "uint256"
            },
            {
              "internalType": "string",
              "name": "ipfsCid",
              "type": "string"
            },
            {
              "internalType": "bytes32",
              "name": "reportHash",
              "type": "bytes32"
            },
            {
              "internalType": "bytes32",
              "name": "submissionNullifier",
              "type": "bytes32"
            },
            {
              "internalType": "bytes32",
              "name": "citizenPseudonym",
              "type": "bytes32"
            },
            {
              "internalType": "address",
              "name": "submittedByRelayer",
              "type": "address"
            },
            {
              "internalType": "enum Reporting.ReportStatus",
              "name": "status",
              "type": "uint8"
            },
            {
              "internalType": "uint256",
              "name": "createdAt",
              "type": "uint256"
            },
            {
              "internalType": "uint256",
              "name": "updatedAt",
              "type": "uint256"
            },
            {
              "internalType": "uint256",
              "name": "phaseDeadline",
              "type": "uint256"
            },
            {
              "internalType": "address",
              "name": "assignedAuthority",
              "type": "address"
            },
            {
              "components": [
                {
                  "internalType": "uint256",
                  "name": "validationUpvotes",
                  "type": "uint256"
                },
                {
                  "internalType": "uint256",
                  "name": "validationDownvotes",
                  "type": "uint256"
                },
                {
                  "internalType": "uint256",
                  "name": "verificationAcceptVotes",
                  "type": "uint256"
                },
                {
                  "internalType": "uint256",
                  "name": "verificationRejectVotes",
                  "type": "uint256"
                },
                {
                  "internalType": "uint256",
                  "name": "rejectionUpholdVotes",
                  "type": "uint256"
                },
                {
                  "internalType": "uint256",
                  "name": "rejectionAppealVotes",
                  "type": "uint256"
                }
              ],
              "internalType": "struct Reporting.VoteCounters",
              "name": "votes",
              "type": "tuple"
            }
          ],
          "internalType": "struct Reporting.Report[]",
          "name": "page",
          "type": "tuple[]"
        },
        {
          "internalType": "uint256",
          "name": "total",
          "type": "uint256"
        }
      ],
      "stateMutability": "view",
      "type": "function"
    },
    {
      "inputs": [],
      "name": "getAuthorities",
      "outputs": [
        {
          "internalType": "address[]",
          "name": "",
          "type": "address[]"
        }
      ],
      "stateMutability": "view",
      "type": "function"
    },
    {
      "inputs": [
        {
          "internalType": "uint256",
          "name": "reportId",
          "type": "uint256"
        }
      ],
      "name": "getReport",
      "outputs": [
        {
          "components": [
            {
              "internalType": "uint256",
              "name": "id",
              "type": "uint256"
            },
            {
              "internalType": "string",
              "name": "ipfsCid",
              "type": "string"
            },
            {
              "internalType": "bytes32",
              "name": "reportHash",
              "type": "bytes32"
            },
            {
              "internalType": "bytes32",
              "name": "submissionNullifier",
              "type": "bytes32"
            },
            {
              "internalType": "bytes32",
              "name": "citizenPseudonym",
              "type": "bytes32"
            },
            {
              "internalType": "address",
              "name": "submittedByRelayer",
              "type": "address"
            },
            {
              "internalType": "enum Reporting.ReportStatus",
              "name": "status",
              "type": "uint8"
            },
            {
              "internalType": "uint256",
              "name": "createdAt",
              "type": "uint256"
            },
            {
              "internalType": "uint256",
              "name": "updatedAt",
              "type": "uint256"
            },
            {
              "internalType": "uint256",
              "name": "phaseDeadline",
              "type": "uint256"
            },
            {
              "internalType": "address",
              "name": "assignedAuthority",
              "type": "address"
            },
            {
              "components": [
                {
                  "internalType": "uint256",
                  "name": "validationUpvotes",
                  "type": "uint256"
                },
                {
                  "internalType": "uint256",
                  "name": "validationDownvotes",
                  "type": "uint256"
                },
                {
                  "internalType": "uint256",
                  "name": "verificationAcceptVotes",
                  "type": "uint256"
                },
                {
                  "internalType": "uint256",
                  "name": "verificationRejectVotes",
                  "type": "uint256"
                },
                {
                  "internalType": "uint256",
                  "name": "rejectionUpholdVotes",
                  "type": "uint256"
                },
                {
                  "internalType": "uint256",
                  "name": "rejectionAppealVotes",
                  "type": "uint256"
                }
              ],
              "internalType": "struct Reporting.VoteCounters",
              "name": "votes",
              "type": "tuple"
            }
          ],
          "internalType": "struct Reporting.Report",
          "name": "",
          "type": "tuple"
        }
      ],
      "stateMutability": "view",
      "type": "function"
    },
    {
      "inputs": [
        {
          "internalType": "bytes32",
          "name": "citizenPseudonym",
          "type": "bytes32"
        }
      ],
      "name": "getReportCountByCitizen",
      "outputs": [
        {
          "internalType": "uint256",
          "name": "",
          "type": "uint256"
        }
      ],
      "stateMutability": "view",
      "type": "function"
    },
    {
      "inputs": [
        {
          "internalType": "bytes32",
          "name": "citizenPseudonym",
          "type": "bytes32"
        }
      ],
      "name": "getReportIdsByCitizen",
      "outputs": [
        {
          "internalType": "uint256[]",
          "name": "ids",
          "type": "uint256[]"
        }
      ],
      "stateMutability": "view",
      "type": "function"
    },
    {
      "inputs": [
        {
          "internalType": "bytes32",
          "name": "citizenPseudonym",
          "type": "bytes32"
        },
        {
          "internalType": "uint256",
          "name": "offset",
          "type": "uint256"
        },
        {
          "internalType": "uint256",
          "name": "limit",
          "type": "uint256"
        }
      ],
      "name": "getReportsByCitizen",
      "outputs": [
        {
          "components": [
            {
              "internalType": "uint256",
              "name": "id",
              "type": "uint256"
            },
            {
              "internalType": "string",
              "name": "ipfsCid",
              "type": "string"
            },
            {
              "internalType": "bytes32",
              "name": "reportHash",
              "type": "bytes32"
            },
            {
              "internalType": "bytes32",
              "name": "submissionNullifier",
              "type": "bytes32"
            },
            {
              "internalType": "bytes32",
              "name": "citizenPseudonym",
              "type": "bytes32"
            },
            {
              "internalType": "address",
              "name": "submittedByRelayer",
              "type": "address"
            },
            {
              "internalType": "enum Reporting.ReportStatus",
              "name": "status",
              "type": "uint8"
            },
            {
              "internalType": "uint256",
              "name": "createdAt",
              "type": "uint256"
            },
            {
              "internalType": "uint256",
              "name": "updatedAt",
              "type": "uint256"
            },
            {
              "internalType": "uint256",
              "name": "phaseDeadline",
              "type": "uint256"
            },
            {
              "internalType": "address",
              "name": "assignedAuthority",
              "type": "address"
            },
            {
              "components": [
                {
                  "internalType": "uint256",
                  "name": "validationUpvotes",
                  "type": "uint256"
                },
                {
                  "internalType": "uint256",
                  "name": "validationDownvotes",
                  "type": "uint256"
                },
                {
                  "internalType": "uint256",
                  "name": "verificationAcceptVotes",
                  "type": "uint256"
                },
                {
                  "internalType": "uint256",
                  "name": "verificationRejectVotes",
                  "type": "uint256"
                },
                {
                  "internalType": "uint256",
                  "name": "rejectionUpholdVotes",
                  "type": "uint256"
                },
                {
                  "internalType": "uint256",
                  "name": "rejectionAppealVotes",
                  "type": "uint256"
                }
              ],
              "internalType": "struct Reporting.VoteCounters",
              "name": "votes",
              "type": "tuple"
            }
          ],
          "internalType": "struct Reporting.Report[]",
          "name": "page",
          "type": "tuple[]"
        },
        {
          "internalType": "uint256",
          "name": "total",
          "type": "uint256"
        }
      ],
      "stateMutability": "view",
      "type": "function"
    },
    {
      "inputs": [
        {
          "internalType": "uint256[]",
          "name": "ids",
          "type": "uint256[]"
        }
      ],
      "name": "getReportsByIds",
      "outputs": [
        {
          "components": [
            {
              "internalType": "uint256",
              "name": "id",
              "type": "uint256"
            },
            {
              "internalType": "string",
              "name": "ipfsCid",
              "type": "string"
            },
            {
              "internalType": "bytes32",
              "name": "reportHash",
              "type": "bytes32"
            },
            {
              "internalType": "bytes32",
              "name": "submissionNullifier",
              "type": "bytes32"
            },
            {
              "internalType": "bytes32",
              "name": "citizenPseudonym",
              "type": "bytes32"
            },
            {
              "internalType": "address",
              "name": "submittedByRelayer",
              "type": "address"
            },
            {
              "internalType": "enum Reporting.ReportStatus",
              "name": "status",
              "type": "uint8"
            },
            {
              "internalType": "uint256",
              "name": "createdAt",
              "type": "uint256"
            },
            {
              "internalType": "uint256",
              "name": "updatedAt",
              "type": "uint256"
            },
            {
              "internalType": "uint256",
              "name": "phaseDeadline",
              "type": "uint256"
            },
            {
              "internalType": "address",
              "name": "assignedAuthority",
              "type": "address"
            },
            {
              "components": [
                {
                  "internalType": "uint256",
                  "name": "validationUpvotes",
                  "type": "uint256"
                },
                {
                  "internalType": "uint256",
                  "name": "validationDownvotes",
                  "type": "uint256"
                },
                {
                  "internalType": "uint256",
                  "name": "verificationAcceptVotes",
                  "type": "uint256"
                },
                {
                  "internalType": "uint256",
                  "name": "verificationRejectVotes",
                  "type": "uint256"
                },
                {
                  "internalType": "uint256",
                  "name": "rejectionUpholdVotes",
                  "type": "uint256"
                },
                {
                  "internalType": "uint256",
                  "name": "rejectionAppealVotes",
                  "type": "uint256"
                }
              ],
              "internalType": "struct Reporting.VoteCounters",
              "name": "votes",
              "type": "tuple"
            }
          ],
          "internalType": "struct Reporting.Report[]",
          "name": "",
          "type": "tuple[]"
        }
      ],
      "stateMutability": "view",
      "type": "function"
    },
    {
      "inputs": [],
      "name": "owner",
      "outputs": [
        {
          "internalType": "address",
          "name": "",
          "type": "address"
        }
      ],
      "stateMutability": "view",
      "type": "function"
    },
    {
      "inputs": [],
      "name": "renounceOwnership",
      "outputs": [],
      "stateMutability": "nonpayable",
      "type": "function"
    },
    {
      "inputs": [],
      "name": "reportCount",
      "outputs": [
        {
          "internalType": "uint256",
          "name": "",
          "type": "uint256"
        }
      ],
      "stateMutability": "view",
      "type": "function"
    },
    {
      "inputs": [
        {
          "internalType": "uint256",
          "name": "",
          "type": "uint256"
        }
      ],
      "name": "reports",
      "outputs": [
        {
          "internalType": "uint256",
          "name": "id",
          "type": "uint256"
        },
        {
          "internalType": "string",
          "name": "ipfsCid",
          "type": "string"
        },
        {
          "internalType": "bytes32",
          "name": "reportHash",
          "type": "bytes32"
        },
        {
          "internalType": "bytes32",
          "name": "submissionNullifier",
          "type": "bytes32"
        },
        {
          "internalType": "bytes32",
          "name": "citizenPseudonym",
          "type": "bytes32"
        },
        {
          "internalType": "address",
          "name": "submittedByRelayer",
          "type": "address"
        },
        {
          "internalType": "enum Reporting.ReportStatus",
          "name": "status",
          "type": "uint8"
        },
        {
          "internalType": "uint256",
          "name": "createdAt",
          "type": "uint256"
        },
        {
          "internalType": "uint256",
          "name": "updatedAt",
          "type": "uint256"
        },
        {
          "internalType": "uint256",
          "name": "phaseDeadline",
          "type": "uint256"
        },
        {
          "internalType": "address",
          "name": "assignedAuthority",
          "type": "address"
        },
        {
          "components": [
            {
              "internalType": "uint256",
              "name": "validationUpvotes",
              "type": "uint256"
            },
            {
              "internalType": "uint256",
              "name": "validationDownvotes",
              "type": "uint256"
            },
            {
              "internalType": "uint256",
              "name": "verificationAcceptVotes",
              "type": "uint256"
            },
            {
              "internalType": "uint256",
              "name": "verificationRejectVotes",
              "type": "uint256"
            },
            {
              "internalType": "uint256",
              "name": "rejectionUpholdVotes",
              "type": "uint256"
            },
            {
              "internalType": "uint256",
              "name": "rejectionAppealVotes",
              "type": "uint256"
            }
          ],
          "internalType": "struct Reporting.VoteCounters",
          "name": "votes",
          "type": "tuple"
        }
      ],
      "stateMutability": "view",
      "type": "function"
    },
    {
      "inputs": [
        {
          "internalType": "address",
          "name": "authority",
          "type": "address"
        },
        {
          "internalType": "bool",
          "name": "authorized",
          "type": "bool"
        }
      ],
      "name": "setAuthority",
      "outputs": [],
      "stateMutability": "nonpayable",
      "type": "function"
    },
    {
      "inputs": [
        {
          "internalType": "address",
          "name": "relayer",
          "type": "address"
        },
        {
          "internalType": "bool",
          "name": "authorized",
          "type": "bool"
        }
      ],
      "name": "setRelayer",
      "outputs": [],
      "stateMutability": "nonpayable",
      "type": "function"
    },
    {
      "inputs": [
        {
          "internalType": "uint256",
          "name": "duration",
          "type": "uint256"
        }
      ],
      "name": "setVotingWindowDuration",
      "outputs": [],
      "stateMutability": "nonpayable",
      "type": "function"
    },
    {
      "inputs": [
        {
          "internalType": "string",
          "name": "ipfsCid",
          "type": "string"
        },
        {
          "internalType": "bytes32",
          "name": "reportHash",
          "type": "bytes32"
        },
        {
          "internalType": "bytes32",
          "name": "submissionNullifier",
          "type": "bytes32"
        },
        {
          "internalType": "bytes32",
          "name": "citizenPseudonym",
          "type": "bytes32"
        }
      ],
      "name": "submitReport",
      "outputs": [
        {
          "internalType": "uint256",
          "name": "reportId",
          "type": "uint256"
        }
      ],
      "stateMutability": "nonpayable",
      "type": "function"
    },
    {
      "inputs": [
        {
          "internalType": "address",
          "name": "newOwner",
          "type": "address"
        }
      ],
      "name": "transferOwnership",
      "outputs": [],
      "stateMutability": "nonpayable",
      "type": "function"
    },
    {
      "inputs": [
        {
          "internalType": "uint256",
          "name": "",
          "type": "uint256"
        },
        {
          "internalType": "bytes32",
          "name": "",
          "type": "bytes32"
        }
      ],
      "name": "usedRejectionReviewVoteNullifiers",
      "outputs": [
        {
          "internalType": "bool",
          "name": "",
          "type": "bool"
        }
      ],
      "stateMutability": "view",
      "type": "function"
    },
    {
      "inputs": [
        {
          "internalType": "bytes32",
          "name": "",
          "type": "bytes32"
        }
      ],
      "name": "usedSubmissionNullifiers",
      "outputs": [
        {
          "internalType": "bool",
          "name": "",
          "type": "bool"
        }
      ],
      "stateMutability": "view",
      "type": "function"
    },
    {
      "inputs": [
        {
          "internalType": "uint256",
          "name": "",
          "type": "uint256"
        },
        {
          "internalType": "bytes32",
          "name": "",
          "type": "bytes32"
        }
      ],
      "name": "usedValidationVoteNullifiers",
      "outputs": [
        {
          "internalType": "bool",
          "name": "",
          "type": "bool"
        }
      ],
      "stateMutability": "view",
      "type": "function"
    },
    {
      "inputs": [
        {
          "internalType": "uint256",
          "name": "",
          "type": "uint256"
        },
        {
          "internalType": "bytes32",
          "name": "",
          "type": "bytes32"
        }
      ],
      "name": "usedVerificationVoteNullifiers",
      "outputs": [
        {
          "internalType": "bool",
          "name": "",
          "type": "bool"
        }
      ],
      "stateMutability": "view",
      "type": "function"
    },
    {
      "inputs": [],
      "name": "votingWindowDuration",
      "outputs": [
        {
          "internalType": "uint256",
          "name": "",
          "type": "uint256"
        }
      ],
      "stateMutability": "view",
      "type": "function"
    }
  ],
  "bytecode": "0x608080604052346101b357331561019d5760008054336001600160a01b0319821681178355916001600160a01b03909116907f8be0079c531659141344cd1fd0a4f28419497f9722a3daafe3b4186f6b6457e09080a360017f9b779b17422d0df92223018b32b4d1fa46e071723d6817e2486d003becc55f0081905561a8c06002557fffced037fd9cc4eef1441f7b8f1269f63a58cec3d6ef42ad364be361bae63996805460ff19908116831790915573ee8670a4d50cdcf0afe7c99bf9a45976baf576c2600052600a6020527f7b1484995d2ffa0c8abb2c2dc7f344bf8cdc8749b75d469795312c840baf74bb80549091169091179055600b5468010000000000000000811015610187576001810180600b5581101561017157600b6000527f0175b7a638427703f0dbe7bb9bbf987a2551717b34e79f33b5b1008d1fa01db90180546001600160a01b03191673ee8670a4d50cdcf0afe7c99bf9a45976baf576c21790556118ac90816101b98239f35b634e487b7160e01b600052603260045260246000fd5b634e487b7160e01b600052604160045260246000fd5b631e4fbdf760e01b600052600060045260246000fd5b600080fdfe6080604052600436101561001257600080fd5b60003560e01c806306a901cc14610fca57806318574bfd14610fac578063185c6f8414610f8e57806329e295c514610f4f578063314f890614610f175780634763747314610ef85780634bcbae7e14610ecc5780634e7f9b1914610dbf578063542de955146109d85780635d098abb1461081657806366dc4015146107d757806368a2c3ad1461072b578063715018a6146106d25780638d1a2a97146106a15780638da5cb5b146106785780639c000299146106405780639fbeed0a1461060e578063b5f0d35c14610434578063c21b486514610368578063c942adf71461024b578063dc75e59914610213578063ecd8dc3a146101d3578063eea0c52e146101b25763f2fde38b1461012457600080fd5b346101ad5760203660031901126101ad5761013d611055565b61014561184d565b6001600160a01b0316801561019757600080546001600160a01b03198116831782556001600160a01b0316907f8be0079c531659141344cd1fd0a4f28419497f9722a3daafe3b4186f6b6457e09080a3005b631e4fbdf760e01b600052600060045260246000fd5b600080fd5b346101ad5760203660031901126101ad576101cb61184d565b600435600255005b346101ad576101e136611224565b906101ea61184d565b60018060a01b0316600052600960205260406000209060ff801983541691151516179055600080f35b346101ad576102213661106b565b906000526008602052604060002090600052602052602060ff604060002054166040519015158152f35b346101ad5760203660031901126101ad5760043560005260036020526102206040600020805490610364610281600183016112e8565b60028301549260038101546004820154600583015461030d6006850154916007860154936008870154956102df6102c7600a60018060a01b0360098c0154169a0161138c565b996040519e8f9e8f9081528160208201520190611081565b9a60408d015260608c015260808b015260018060a01b03811660a08b015260ff60c08b019160a01c166110c2565b60e08801526101008701526101208601526101408501528051610160850152602081015161018085015260408101516101a085015260608101516101c085015260808101516101e085015260a00151610200840152565b0390f35b346101ad5760003660031901126101ad57604051806020600b5492838152018092600b6000527f0175b7a638427703f0dbe7bb9bbf987a2551717b34e79f33b5b1008d1fa01db99060005b81811061041557505050816103c99103826112c6565b6040519182916020830190602084525180915260408301919060005b8181106103f3575050500390f35b82516001600160a01b03168452859450602093840193909201916001016103e5565b82546001600160a01b03168452602090930192600192830192016103b3565b346101ad5761044236611224565b61044a61184d565b80806105eb575b156104d957506001600160a01b0381166000908152600a60205260409020805460ff19166001179055600b5490600160401b8210156104c35761049d8260016104c19401600b5561100c565b81546001600160a01b0393841660039290921b91821b9390911b1916919091179055565b005b634e487b7160e01b600052604160045260246000fd5b15806105c9575b6104e657005b6001600160a01b03166000818152600a60205260408120805460ff191690555b600b54808210156104c1578261051b8361100c565b905460039190911b1c6001600160a01b03161461053b5750600101610506565b6000198101925082116105b35761049d61055761056f9361100c565b905460039190911b1c6001600160a01b03169161100c565b600b54801561059d57600019016105858161100c565b81549060018060a01b039060031b1b19169055600b55005b634e487b7160e01b600052603160045260246000fd5b634e487b7160e01b600052601160045260246000fd5b506001600160a01b0381166000908152600a602052604090205460ff166104e0565b506001600160a01b0382166000908152600a602052604090205460ff1615610451565b346101ad5760603660031901126101ad576106306044356024356004356116b7565b9061036460405192839283611208565b346101ad5761064e3661106b565b906000526007602052604060002090600052602052602060ff604060002054166040519015158152f35b346101ad5760003660031901126101ad576000546040516001600160a01b039091168152602090f35b346101ad5760203660031901126101ad576004356000526005602052602060ff604060002054166040519015158152f35b346101ad5760003660031901126101ad576106eb61184d565b600080546001600160a01b0319811682556001600160a01b03167f8be0079c531659141344cd1fd0a4f28419497f9722a3daafe3b4186f6b6457e08280a3005b346101ad5760203660031901126101ad57600435600052600460205260406000206040518060208354918281520190819360005260206000209060005b8181106107c1575050508161077e9103826112c6565b6040519182916020830190602084525180915260408301919060005b8181106107a8575050500390f35b825184528594506020938401939092019160010161079a565b8254845260209093019260019283019201610768565b346101ad5760203660031901126101ad576001600160a01b036107f8611055565b16600052600a602052602060ff604060002054166040519015158152f35b346101ad5760203660031901126101ad5760043567ffffffffffffffff81116101ad57366023820112156101ad5780600401359067ffffffffffffffff82116101ad576024810190602436918460051b0101116101ad57610876826114ba565b9160005b8181106108975760405160208082528190610364908201876111af565b6108a28183856116a7565b351580156109c2575b6109b1576108ba8183856116a7565b3560005260036020526040600020906040516108d58161128d565b825481526108e5600184016112e8565b602082015260028301546040820152600383015460608201526004830154608082015260058301546001600160a01b03811660a0808401919091521c60ff1692600884101561099b5760c0820193909352600683015460e08201526007830154610100820152600883015461012082015260098301546001600160a01b031661014082015260019261097990600a0161138c565b6101608201526109898287611517565b526109948186611517565b500161087a565b634e487b7160e01b600052602160045260246000fd5b630828ea1360e11b60005260046000fd5b506109ce8183856116a7565b35600154106108ab565b346101ad5760803660031901126101ad5760043567ffffffffffffffff81116101ad57366023820112156101ad57806004013567ffffffffffffffff81116101ad5736602482840101116101ad57602435604435906064359333600052600960205260ff6040600020541615610daf5760027f9b779b17422d0df92223018b32b4d1fa46e071723d6817e2486d003becc55f005414610d9e5760027f9b779b17422d0df92223018b32b4d1fa46e071723d6817e2486d003becc55f00558315610d8d578115610d7d578215610d6c578415610d5b5782600052600560205260ff60406000205416610d4a578260005260056020526040600020600160ff1982541617905560015460001981146105b35760010193846001558460005260036020526040600020958587556001870196600097610b148154611253565b601f8111610d05575b508389601f8211600114610c9c578a91610c8e575b508460011b906000198660031b1c19161790555b84600282015585600382015581600482015560058101336bffffffffffffffffffffffff60a01b82541617815560ff60a01b198154169055426006820155426007820155600254420190814211610c7a5760080155808752600460205260408720805490600160401b821015610c6657937faee47cd7ca1337431f1415cd26d033e6c2f0a74884ac42b0c13755b4b28841559360249360209a610bf2858c99600160809801815561103d565b81549060031b908a821b91600019901b1916179055826040519687956060875282606088015201868601378383018501528a830152426040830152601f01601f19168101030190a460017f9b779b17422d0df92223018b32b4d1fa46e071723d6817e2486d003becc55f0055604051908152f35b634e487b7160e01b89526041600452602489fd5b634e487b7160e01b89526011600452602489fd5b60249150860101358a610b32565b828b5260208b20915085601f1981168c5b818110610ce7575010610cca575b5050600184811b019055610b46565b860160240135600019600387901b60f8161c191690558980610cbb565b89840160240135855560019094019360209384019389935001610cad565b818a5260208a20601f860160051c81019160208710610d40575b601f0160051c01905b818110610d355750610b1d565b8a8155600101610d28565b9091508190610d1f565b636569570160e11b60005260046000fd5b63b94b25c760e01b60005260046000fd5b632ec8265960e11b60005260046000fd5b6257c03760e51b60005260046000fd5b63063ee91d60e41b60005260046000fd5b633ee5aeb560e01b60005260046000fd5b6282b42960e81b60005260046000fd5b346101ad5760203660031901126101ad57600435610ddb6113ea565b5080158015610ec1575b6109b15760005260036020526040600020604051610e028161128d565b81548152610e12600183016112e8565b602082015260028201546040820152600382015460608201526004820154608082015260058201546001600160a01b03811660a0808401919091521c60ff1691600883101561099b5760c0820192909252600682015460e08201526007820154610100820152600882015461012082015260098201546001600160a01b031661014082015261036491610ea790600a0161138c565b6101608201526040519182916020835260208301906110cf565b506001548111610de5565b346101ad5760203660031901126101ad5760043560005260046020526020604060002054604051908152f35b346101ad5760403660031901126101ad5761063060243560043561152b565b346101ad57610f253661106b565b906000526006602052604060002090600052602052602060ff604060002054166040519015158152f35b346101ad5760203660031901126101ad576001600160a01b03610f70611055565b166000526009602052602060ff604060002054166040519015158152f35b346101ad5760003660031901126101ad576020600154604051908152f35b346101ad5760003660031901126101ad576020600254604051908152f35b346101ad5760203660031901126101ad57600435600b548110156101ad57610ff360209161100c565b905460405160039290921b1c6001600160a01b03168152f35b600b5481101561102757600b60005260206000200190600090565b634e487b7160e01b600052603260045260246000fd5b80548210156110275760005260206000200190600090565b600435906001600160a01b03821682036101ad57565b60409060031901126101ad576004359060243590565b919082519283825260005b8481106110ad575050826000602080949584010152601f8019910116010190565b8060208092840101518282860101520161108c565b90600882101561099b5752565b906111ac9082518152610160806110f760208601516102206020860152610220850190611081565b9460408101516040850152606081015160608501526080810151608085015260018060a01b0360a08201511660a085015261113a60c082015160c08601906110c2565b60e081015160e085015261010081015161010085015261012081015161012085015260018060a01b0361014082015116610140850152015191019060a0809180518452602081015160208501526040810151604085015260608101516060850152608081015160808501520151910152565b90565b9080602083519182815201916020808360051b8301019401926000915b8383106111db57505050505090565b90919293946020806111f9600193601f1986820301875289516110cf565b970193019301919392906111cc565b92919061121f6020916040865260408601906111af565b930152565b60409060031901126101ad576004356001600160a01b03811681036101ad579060243580151581036101ad5790565b90600182811c92168015611283575b602083101461126d57565b634e487b7160e01b600052602260045260246000fd5b91607f1691611262565b610180810190811067ffffffffffffffff8211176104c357604052565b60c0810190811067ffffffffffffffff8211176104c357604052565b90601f8019910116810190811067ffffffffffffffff8211176104c357604052565b90604051918260008254926112fc84611253565b808452936001811690811561136a5750600114611323575b50611321925003836112c6565b565b90506000929192526020600020906000915b81831061134e5750509060206113219282010138611314565b6020919350806001915483858901015201910190918492611335565b90506020925061132194915060ff191682840152151560051b82010138611314565b90604051611399816112aa565b60a06005829480548452600181015460208501526002810154604085015260038101546060850152600481015460808501520154910152565b67ffffffffffffffff81116104c35760051b60200190565b604051906113f78261128d565b816000815260606020820152600060408201526000606082015260006080820152600060a0820152600060c0820152600060e082015260006101008201526000610120820152600061014082015261016060405191611455836112aa565b6000835260006020840152600060408401526000606084015260006080840152600060a08401520152565b6040519061148f6020836112c6565b600080835282815b8281106114a357505050565b6020906114ae6113ea565b82828501015201611497565b906114c4826113d2565b6114d160405191826112c6565b82815280926114e2601f19916113d2565b019060005b8281106114f357505050565b6020906114fe6113ea565b828285010152016114e7565b919082039182116105b357565b80518210156110275760209160051b010190565b918115801561169d575b61168c576001549182158015611682575b61167257611554848461150a565b908082101561166b57505b61157261156b826114ba565b948461150a565b60005b82811061158157505050565b61158b818361150a565b60005260036020526040600020906040516115a58161128d565b825481526115b5600184016112e8565b602082015260028301546040820152600383015460608201526004830154608082015260058301546001600160a01b03811660a0808401919091521c60ff1692600884101561099b5760c0820193909352600683015460e08201526007830154610100820152600883015461012082015260098301546001600160a01b031661014082015260019261164990600a0161138c565b6101608201526116598289611517565b526116648188611517565b5001611575565b905061155f565b5090915061167e611480565b9190565b5082841015611546565b633d47273b60e01b60005260046000fd5b5060648211611535565b91908110156110275760051b0190565b92909282158015611843575b61168c576000526004602052604060002080549283158015611839575b61182c576116ee858561150a565b90808210156118245750905b611703826114ba565b946000198501908582116105b35761171a9161150a565b60005b83811061172a5750505050565b61173d611737828461150a565b8461103d565b90549060031b1c600052600360205260406000209060405161175e8161128d565b8254815261176e600184016112e8565b602082015260028301546040820152600383015460608201526004830154608082015260058301546001600160a01b03811660a0808401919091521c60ff1692600884101561099b5760c0820193909352600683015460e08201526007830154610100820152600883015461012082015260098301546001600160a01b031661014082015260019261180290600a0161138c565b610160820152611812828a611517565b5261181d8189611517565b500161171d565b9050906116fa565b505090915061167e611480565b50838510156116e0565b50606483116116c3565b6000546001600160a01b0316330361186157565b63118cdaa760e01b6000523360045260246000fdfea2646970667358221220108bda23324b71e0886a3b5addaea8b1d8aef566bd7e02ba12885dead948134e64736f6c634300081c0033",
  "linkReferences": {},
  "deployedLinkReferences": {},
  "immutableReferences": {},
  "inputSourceName": "project/contracts/Reporting.sol",
  "buildInfoId": "solc-0_8_28-e5880b3ba3a38a4d192dbab87a15da1c9ce35055"
}