{
  "_format": "hh3-artifact-1",
  "contractName": "AuthorityMultiSig",
  "sourceName": "contracts/AuthorityMultiSig.sol",
  "abi": [
    {
      "inputs": [
        {
          "internalType": "address[]",
          "name": "initialSuperAdmins",
          "type": "address[]"
        },
        {
          "internalType": "address",
          "name": "_reportingContract",
          "type": "address"
        }
      ],
      "stateMutability": "nonpayable",
      "type": "constructor"
    },
    {
      "anonymous": false,
      "inputs": [
        {
          "indexed": true,
          "internalType": "uint256",
          "name": "proposalId",
          "type": "uint256"
        },
        {
          "indexed": true,
          "internalType": "address",
          "name": "target",
          "type": "address"
        },
        {
          "indexed": false,
          "internalType": "enum AuthorityMultiSig.ActionType",
          "name": "actionType",
          "type": "uint8"
        }
      ],
      "name": "ProposalExecuted",
      "type": "event"
    },
    {
      "anonymous": false,
      "inputs": [
        {
          "indexed": true,
          "internalType": "uint256",
          "name": "proposalId",
          "type": "uint256"
        },
        {
          "indexed": true,
          "internalType": "address",
          "name": "target",
          "type": "address"
        },
        {
          "indexed": false,
          "internalType": "enum AuthorityMultiSig.ActionType",
          "name": "actionType",
          "type": "uint8"
        },
        {
          "indexed": true,
          "internalType": "address",
          "name": "proposer",
          "type": "address"
        }
      ],
      "name": "ProposalSubmitted",
      "type": "event"
    },
    {
      "anonymous": false,
      "inputs": [
        {
          "indexed": true,
          "internalType": "address",
          "name": "newContract",
          "type": "address"
        }
      ],
      "name": "ReportingContractUpdated",
      "type": "event"
    },
    {
      "anonymous": false,
      "inputs": [
        {
          "indexed": true,
          "internalType": "uint256",
          "name": "proposalId",
          "type": "uint256"
        },
        {
          "indexed": true,
          "internalType": "address",
          "name": "voter",
          "type": "address"
        }
      ],
      "name": "VoteCast",
      "type": "event"
    },
    {
      "inputs": [
        {
          "internalType": "uint256",
          "name": "proposalId",
          "type": "uint256"
        }
      ],
      "name": "executeProposal",
      "outputs": [],
      "stateMutability": "nonpayable",
      "type": "function"
    },
    {
      "inputs": [
        {
          "internalType": "uint256",
          "name": "",
          "type": "uint256"
        },
        {
          "internalType": "address",
          "name": "",
          "type": "address"
        }
      ],
      "name": "hasVoted",
      "outputs": [
        {
          "internalType": "bool",
          "name": "",
          "type": "bool"
        }
      ],
      "stateMutability": "view",
      "type": "function"
    },
    {
      "inputs": [
        {
          "internalType": "address",
          "name": "",
          "type": "address"
        }
      ],
      "name": "isSuperAdmin",
      "outputs": [
        {
          "internalType": "bool",
          "name": "",
          "type": "bool"
        }
      ],
      "stateMutability": "view",
      "type": "function"
    },
    {
      "inputs": [],
      "name": "proposalCount",
      "outputs": [
        {
          "internalType": "uint256",
          "name": "",
          "type": "uint256"
        }
      ],
      "stateMutability": "view",
      "type": "function"
    },
    {
      "inputs": [
        {
          "internalType": "uint256",
          "name": "",
          "type": "uint256"
        }
      ],
      "name": "proposals",
      "outputs": [
        {
          "internalType": "uint256",
          "name": "id",
          "type": "uint256"
        },
        {
          "internalType": "address",
          "name": "target",
          "type": "address"
        },
        {
          "internalType": "enum AuthorityMultiSig.ActionType",
          "name": "actionType",
          "type": "uint8"
        },
        {
          "internalType": "uint256",
          "name": "votes",
          "type": "uint256"
        },
        {
          "internalType": "bool",
          "name": "executed",
          "type": "bool"
        }
      ],
      "stateMutability": "view",
      "type": "function"
    },
    {
      "inputs": [],
      "name": "reportingContract",
      "outputs": [
        {
          "internalType": "contract IReporting",
          "name": "",
          "type": "address"
        }
      ],
      "stateMutability": "view",
      "type": "function"
    },
    {
      "inputs": [
        {
          "internalType": "address",
          "name": "_reportingContract",
          "type": "address"
        }
      ],
      "name": "setReportingContract",
      "outputs": [],
      "stateMutability": "nonpayable",
      "type": "function"
    },
    {
      "inputs": [
        {
          "internalType": "address",
          "name": "target",
          "type": "address"
        },
        {
          "internalType": "enum AuthorityMultiSig.ActionType",
          "name": "actionType",
          "type": "uint8"
        }
      ],
      "name": "submitProposal",
      "outputs": [
        {
          "internalType": "uint256",
          "name": "",
          "type": "uint256"
        }
      ],
      "stateMutability": "nonpayable",
      "type": "function"
    },
    {
      "inputs": [],
      "name": "superAdminCount",
      "outputs": [
        {
          "internalType": "uint256",
          "name": "",
          "type": "uint256"
        }
      ],
      "stateMutability": "view",
      "type": "function"
    },
    {
      "inputs": [
        {
          "internalType": "uint256",
          "name": "proposalId",
          "type": "uint256"
        }
      ],
      "name": "vote",
      "outputs": [],
      "stateMutability": "nonpayable",
      "type": "function"
    }
  ],
  "bytecode": "0x60806040523461022c57610ea48038038061001981610247565b92833981019060408183031261022c5780516001600160401b03811161022c5781019180601f8401121561022c578251926001600160401b038411610231578360051b9060208061006b818501610247565b80978152019282010192831161022c57602001905b82821061021457846100946020860161026c565b8151156101d05760005b825181101561019757600581901b8301602001516000906001600160a01b03168015610152578082528160205260ff60408320541661011b5781528060205260408120600160ff198254161790556001549060001982146101075750600190810181550161009e565b634e487b7160e01b81526011600452602490fd5b60405162461bcd60e51b815260206004820152600f60248201526e223ab83634b1b0ba329030b236b4b760891b6044820152606490fd5b60405162461bcd60e51b815260206004820152601560248201527f496e76616c69642061646d696e206164647265737300000000000000000000006044820152606490fd5b506001600160a01b0316806101b6575b604051610c2390816102818239f35b600580546001600160a01b031916919091179055806101a7565b606460405162461bcd60e51b815260206004820152602060248201527f4d7573742068617665206174206c6561737420312073757065722061646d696e6044820152fd5b602080916102218461026c565b815201910190610080565b600080fd5b634e487b7160e01b600052604160045260246000fd5b6040519190601f01601f191682016001600160401b0381118382101761023157604052565b51906001600160a01b038216820361022c5756fe6080604052600436101561001257600080fd5b60003560e01c80630121b93f14610684578063013cf08b146106175780630d58bfb9146105ee5780630d61b519146105d057806343859632146105785780636b306e5b146104ff5780636df13282146104e1578063a071e36b146100ec578063da35c664146100ce5763df7f453b1461008a57600080fd5b346100c95760203660031901126100c9576001600160a01b036100ab6107a0565b166000526000602052602060ff604060002054166040519015158152f35b600080fd5b346100c95760003660031901126100c9576020600254604051908152f35b346100c95760403660031901126100c9576101056107a0565b6024359060048210156100c95733600052600060205261012c60ff604060002054166107b6565b6001600160a01b031680156104a357600091806103f85781600052600060205260ff604060002054166103bb575b61016560025461088e565b91826002556040519360a0850185811067ffffffffffffffff8211176103a55760405283855260208501828152604086019161038f57838252606086019560008752608081019260008452866000526003602052604060002091518255600182019260018060a01b039051166bffffffffffffffffffffffff60a01b8454161783555196600488101561038f5760039260009881549060ff60a01b9060a01b169060ff60a01b1916179055516002820155019051151560ff801983541691161790556102346040518093610793565b827f77bdce6fa815c67b09e207eba9258850f00ed9240efd7de8040275236629943b60203394a43382528160205261027260ff6040842054166107b6565b80825260036020526040822061028a828254146107f6565b61029b60ff60038301541615610842565b81835260046020908152604080852033865290915283205460ff1661035a578183526004602090815260408085203386529091528320805460ff1916600117905560020180546102ea9061088e565b80915533827ff1003b73c437642c0460aee9cd9628b0b8c447b66e6c7c905531b9c644214a118580a360015460011c906001820180921161034657602093501015610338575b604051908152f35b6103418161090b565b610330565b634e487b7160e01b84526011600452602484fd5b60405162461bcd60e51b815260206004820152600d60248201526c105b1c9958591e481d9bdd1959609a1b6044820152606490fd5b634e487b7160e01b600052602160045260246000fd5b634e487b7160e01b600052604160045260246000fd5b60405162461bcd60e51b815260206004820152601560248201527420b63932b0b23c90309039bab832b91030b236b4b760591b6044820152606490fd5b60009250600019810161015a5781600052600060205260ff604060002054161561046a57600180541161015a5760405162461bcd60e51b815260206004820152601e60248201527f43616e6e6f742072656d6f7665206c6173742073757065722061646d696e00006044820152606490fd5b60405162461bcd60e51b81526020600482015260116024820152702737ba10309039bab832b91030b236b4b760791b6044820152606490fd5b60405162461bcd60e51b8152602060048201526016602482015275496e76616c696420746172676574206164647265737360501b6044820152606490fd5b346100c95760003660031901126100c9576020600154604051908152f35b346100c95760203660031901126100c9576105186107a0565b33600052600060205261053260ff604060002054166107b6565b600580546001600160a01b0319166001600160a01b039290921691821790557f610d7b56aabcf98e5c59a3f5689addba00cb5464e5d4b0ed57d05f18c6f548e1600080a2005b346100c95760403660031901126100c9576024356001600160a01b03811681036100c957600435600052600460205260406000209060018060a01b0316600052602052602060ff604060002054166040519015158152f35b346100c95760203660031901126100c9576105ec60043561090b565b005b346100c95760003660031901126100c9576005546040516001600160a01b039091168152602090f35b346100c95760203660031901126100c957600435600052600360205260a0604060002080549060018101549061067660ff600360028401549301541692604051948552600180871b038116602086015260ff6040860191871c16610793565b606083015215156080820152f35b346100c95760203660031901126100c9576004353360005260006020526106b260ff604060002054166107b6565b80600052600360205260406000206106cc828254146107f6565b6106dd60ff60038301541615610842565b600082815260046020908152604080832033845290915290205460ff1661035a5760008281526004602090815260408083203384529091529020805460ff1916600117905560020180546107309061088e565b80915533827ff1003b73c437642c0460aee9cd9628b0b8c447b66e6c7c905531b9c644214a11600080a360015460011c906001820180921161077d57101561077457005b6105ec9061090b565b634e487b7160e01b600052601160045260246000fd5b90600482101561038f5752565b600435906001600160a01b03821682036100c957565b156107bd57565b60405162461bcd60e51b81526020600482015260116024820152702737ba10309029bab832b91020b236b4b760791b6044820152606490fd5b156107fd57565b60405162461bcd60e51b815260206004820152601760248201527f50726f706f73616c20646f6573206e6f742065786973740000000000000000006044820152606490fd5b1561084957565b60405162461bcd60e51b815260206004820152601960248201527f50726f706f73616c20616c7265616479206578656375746564000000000000006044820152606490fd5b600019811461077d5760010190565b156108a457565b60405162461bcd60e51b815260206004820152601a60248201527f5265706f7274696e6720636f6e7472616374206e6f74207365740000000000006044820152606490fd5b90601f8019910116810190811067ffffffffffffffff8211176103a557604052565b6000818152600360205260408120610925838254146107f6565b600381019081549161093a60ff841615610842565b60015460011c60018101809111610bd957600283015410610ba1576001809360ff19161790550190815460ff8160a01c166004811015610b8d5780610a1257505081546001600160a01b03168082526020829052604082205490919060ff16156109e8575b50505b54907fd8e37de2213a65bc32fdb0ee5b5ab3d447bd36f2513d2ac78a00da2b7665a6ab6020604051936109db8560ff8360a01c16610793565b6001600160a01b031693a3565b60409181528060205220600160ff19825416179055610a0860015461088e565b600155388061099f565b60018103610a8257505081546001600160a01b03168082526020829052604082205460ff16610a43575b50506109a2565b8152806020526040812060ff198154169055600154908115610a6e5750600019016001553880610a3c565b634e487b7160e01b81526011600452602490fd5b60028103610b135750506005546001600160a01b0316610aa381151561089d565b82546001600160a01b0316813b15610b0f578291604483926040519485938492632d7c34d760e21b84526004840152600160248401525af18015610b0457610aec5750506109a2565b610af78280926108e9565b610b015780610a3c565b80fd5b6040513d84823e3d90fd5b8280fd5b600314610b215750506109a2565b6005546001600160a01b031690610b3982151561089d565b813b15610b0f57604051632d7c34d760e21b81526001600160a01b039091166004820152602481018390529082908290604490829084905af18015610b045715610a3c5781610b87916108e9565b38610a3c565b634e487b7160e01b83526021600452602483fd5b60405162461bcd60e51b815260206004820152601060248201526f4e6f7420656e6f75676820766f74657360801b6044820152606490fd5b634e487b7160e01b85526011600452602485fdfea26469706673582212201c5628f0c756021bc361965c66d2aedfa0e94326aac6ab24080805b000432b7664736f6c634300081c0033",
  "linkReferences": {},
  "deployedLinkReferences": {},
  "immutableReferences": {},
  "inputSourceName": "project/contracts/AuthorityMultiSig.sol",
  "buildInfoId": "solc-0_8_28-764a4add52a86e96f97ea2a7d51bfe11a57612e2"
}