{
  "_format": "hh3-artifact-1",
  "contractName": "AuthorityMultiSig",
  "sourceName": "contracts/AuthorityMultiSig.sol",
  "abi": [
    {
      "inputs": [
        {
          "internalType": "address[]",
          "name": "initialSuperAdmins",
          "type": "address[]"
        },
        {
          "internalType": "address",
          "name": "_reportingContract",
          "type": "address"
        }
      ],
      "stateMutability": "nonpayable",
      "type": "constructor"
    },
    {
      "anonymous": false,
      "inputs": [
        {
          "indexed": true,
          "internalType": "uint256",
          "name": "proposalId",
          "type": "uint256"
        },
        {
          "indexed": true,
          "internalType": "address",
          "name": "target",
          "type": "address"
        },
        {
          "indexed": false,
          "internalType": "enum AuthorityMultiSig.ActionType",
          "name": "actionType",
          "type": "uint8"
        }
      ],
      "name": "ProposalExecuted",
      "type": "event"
    },
    {
      "anonymous": false,
      "inputs": [
        {
          "indexed": true,
          "internalType": "uint256",
          "name": "proposalId",
          "type": "uint256"
        },
        {
          "indexed": true,
          "internalType": "address",
          "name": "target",
          "type": "address"
        },
        {
          "indexed": false,
          "internalType": "enum AuthorityMultiSig.ActionType",
          "name": "actionType",
          "type": "uint8"
        },
        {
          "indexed": true,
          "internalType": "address",
          "name": "proposer",
          "type": "address"
        }
      ],
      "name": "ProposalSubmitted",
      "type": "event"
    },
    {
      "anonymous": false,
      "inputs": [
        {
          "indexed": true,
          "internalType": "address",
          "name": "newContract",
          "type": "address"
        }
      ],
      "name": "ReportingContractUpdated",
      "type": "event"
    },
    {
      "anonymous": false,
      "inputs": [
        {
          "indexed": true,
          "internalType": "uint256",
          "name": "proposalId",
          "type": "uint256"
        },
        {
          "indexed": true,
          "internalType": "address",
          "name": "voter",
          "type": "address"
        }
      ],
      "name": "VoteCast",
      "type": "event"
    },
    {
      "inputs": [],
      "name": "REQUIRED_APPROVALS",
      "outputs": [
        {
          "internalType": "uint256",
          "name": "",
          "type": "uint256"
        }
      ],
      "stateMutability": "view",
      "type": "function"
    },
    {
      "inputs": [
        {
          "internalType": "uint256",
          "name": "proposalId",
          "type": "uint256"
        }
      ],
      "name": "executeProposal",
      "outputs": [],
      "stateMutability": "nonpayable",
      "type": "function"
    },
    {
      "inputs": [
        {
          "internalType": "uint256",
          "name": "",
          "type": "uint256"
        },
        {
          "internalType": "address",
          "name": "",
          "type": "address"
        }
      ],
      "name": "hasVoted",
      "outputs": [
        {
          "internalType": "bool",
          "name": "",
          "type": "bool"
        }
      ],
      "stateMutability": "view",
      "type": "function"
    },
    {
      "inputs": [
        {
          "internalType": "address",
          "name": "",
          "type": "address"
        }
      ],
      "name": "isSuperAdmin",
      "outputs": [
        {
          "internalType": "bool",
          "name": "",
          "type": "bool"
        }
      ],
      "stateMutability": "view",
      "type": "function"
    },
    {
      "inputs": [],
      "name": "proposalCount",
      "outputs": [
        {
          "internalType": "uint256",
          "name": "",
          "type": "uint256"
        }
      ],
      "stateMutability": "view",
      "type": "function"
    },
    {
      "inputs": [
        {
          "internalType": "uint256",
          "name": "",
          "type": "uint256"
        }
      ],
      "name": "proposals",
      "outputs": [
        {
          "internalType": "uint256",
          "name": "id",
          "type": "uint256"
        },
        {
          "internalType": "address",
          "name": "target",
          "type": "address"
        },
        {
          "internalType": "enum AuthorityMultiSig.ActionType",
          "name": "actionType",
          "type": "uint8"
        },
        {
          "internalType": "uint256",
          "name": "votes",
          "type": "uint256"
        },
        {
          "internalType": "bool",
          "name": "executed",
          "type": "bool"
        }
      ],
      "stateMutability": "view",
      "type": "function"
    },
    {
      "inputs": [],
      "name": "reportingContract",
      "outputs": [
        {
          "internalType": "contract IReporting",
          "name": "",
          "type": "address"
        }
      ],
      "stateMutability": "view",
      "type": "function"
    },
    {
      "inputs": [
        {
          "internalType": "address",
          "name": "_reportingContract",
          "type": "address"
        }
      ],
      "name": "setReportingContract",
      "outputs": [],
      "stateMutability": "nonpayable",
      "type": "function"
    },
    {
      "inputs": [
        {
          "internalType": "address",
          "name": "target",
          "type": "address"
        },
        {
          "internalType": "enum AuthorityMultiSig.ActionType",
          "name": "actionType",
          "type": "uint8"
        }
      ],
      "name": "submitProposal",
      "outputs": [
        {
          "internalType": "uint256",
          "name": "",
          "type": "uint256"
        }
      ],
      "stateMutability": "nonpayable",
      "type": "function"
    },
    {
      "inputs": [],
      "name": "superAdminCount",
      "outputs": [
        {
          "internalType": "uint256",
          "name": "",
          "type": "uint256"
        }
      ],
      "stateMutability": "view",
      "type": "function"
    },
    {
      "inputs": [
        {
          "internalType": "uint256",
          "name": "proposalId",
          "type": "uint256"
        }
      ],
      "name": "vote",
      "outputs": [],
      "stateMutability": "nonpayable",
      "type": "function"
    }
  ],
  "bytecode": "0x60806040523461022c57610ecb8038038061001981610247565b92833981019060408183031261022c5780516001600160401b03811161022c5781019180601f8401121561022c578251926001600160401b038411610231578360051b9060208061006b818501610247565b80978152019282010192831161022c57602001905b82821061021457846100946020860161026c565b8151156101d05760005b825181101561019757600581901b8301602001516000906001600160a01b03168015610152578082528160205260ff60408320541661011b5781528060205260408120600160ff198254161790556001549060001982146101075750600190810181550161009e565b634e487b7160e01b81526011600452602490fd5b60405162461bcd60e51b815260206004820152600f60248201526e223ab83634b1b0ba329030b236b4b760891b6044820152606490fd5b60405162461bcd60e51b815260206004820152601560248201527f496e76616c69642061646d696e206164647265737300000000000000000000006044820152606490fd5b506001600160a01b0316806101b6575b604051610c4a90816102818239f35b600580546001600160a01b031916919091179055806101a7565b606460405162461bcd60e51b815260206004820152602060248201527f4d7573742068617665206174206c6561737420312073757065722061646d696e6044820152fd5b602080916102218461026c565b815201910190610080565b600080fd5b634e487b7160e01b600052604160045260246000fd5b6040519190601f01601f191682016001600160401b0381118382101761023157604052565b51906001600160a01b038216820361022c5756fe6080604052600436101561001257600080fd5b60003560e01c80630121b93f146106ab578063013cf08b1461063e5780630d58bfb9146106155780630d61b519146105f7578063438596321461059f578063599c5533146105835780636b306e5b1461050a5780636df13282146104ec578063a071e36b146100f7578063da35c664146100d95763df7f453b1461009557600080fd5b346100d45760203660031901126100d4576001600160a01b036100b66107c7565b166000526000602052602060ff604060002054166040519015158152f35b600080fd5b346100d45760003660031901126100d4576020600254604051908152f35b346100d45760403660031901126100d4576101106107c7565b6024359060048210156100d45733600052600060205261013760ff604060002054166107dd565b6001600160a01b031680156104ae57600091806104035781600052600060205260ff604060002054166103c6575b6101706002546108b5565b91826002556040519360a0850185811067ffffffffffffffff8211176103b05760405283855260208501828152604086019161039a57838252606086019560008752608081019260008452866000526003602052604060002091518255600182019260018060a01b039051166bffffffffffffffffffffffff60a01b8454161783555196600488101561039a5760039260009881549060ff60a01b9060a01b169060ff60a01b1916179055516002820155019051151560ff8019835416911617905561023f60405180936107ba565b827f77bdce6fa815c67b09e207eba9258850f00ed9240efd7de8040275236629943b60203394a43382528160205261027d60ff6040842054166107dd565b8082526003602052604082206102958282541461081d565b6102a660ff60038301541615610869565b81835260046020908152604080852033865290915283205460ff16610365578183526004602090815260408085203386529091528320805460ff1916600117905560020180546102f5906108b5565b80915533827ff1003b73c437642c0460aee9cd9628b0b8c447b66e6c7c905531b9c644214a118580a360015460011c906001820180921161035157602093501015610343575b604051908152f35b61034c81610932565b61033b565b634e487b7160e01b84526011600452602484fd5b60405162461bcd60e51b815260206004820152600d60248201526c105b1c9958591e481d9bdd1959609a1b6044820152606490fd5b634e487b7160e01b600052602160045260246000fd5b634e487b7160e01b600052604160045260246000fd5b60405162461bcd60e51b815260206004820152601560248201527420b63932b0b23c90309039bab832b91030b236b4b760591b6044820152606490fd5b6000925060001981016101655781600052600060205260ff60406000205416156104755760018054116101655760405162461bcd60e51b815260206004820152601e60248201527f43616e6e6f742072656d6f7665206c6173742073757065722061646d696e00006044820152606490fd5b60405162461bcd60e51b81526020600482015260116024820152702737ba10309039bab832b91030b236b4b760791b6044820152606490fd5b60405162461bcd60e51b8152602060048201526016602482015275496e76616c696420746172676574206164647265737360501b6044820152606490fd5b346100d45760003660031901126100d4576020600154604051908152f35b346100d45760203660031901126100d4576105236107c7565b33600052600060205261053d60ff604060002054166107dd565b600580546001600160a01b0319166001600160a01b039290921691821790557f610d7b56aabcf98e5c59a3f5689addba00cb5464e5d4b0ed57d05f18c6f548e1600080a2005b346100d45760003660031901126100d457602060405160028152f35b346100d45760403660031901126100d4576024356001600160a01b03811681036100d457600435600052600460205260406000209060018060a01b0316600052602052602060ff604060002054166040519015158152f35b346100d45760203660031901126100d457610613600435610932565b005b346100d45760003660031901126100d4576005546040516001600160a01b039091168152602090f35b346100d45760203660031901126100d457600435600052600360205260a0604060002080549060018101549061069d60ff600360028401549301541692604051948552600180871b038116602086015260ff6040860191871c166107ba565b606083015215156080820152f35b346100d45760203660031901126100d4576004353360005260006020526106d960ff604060002054166107dd565b80600052600360205260406000206106f38282541461081d565b61070460ff60038301541615610869565b600082815260046020908152604080832033845290915290205460ff166103655760008281526004602090815260408083203384529091529020805460ff191660011790556002018054610757906108b5565b80915533827ff1003b73c437642c0460aee9cd9628b0b8c447b66e6c7c905531b9c644214a11600080a360015460011c90600182018092116107a457101561079b57005b61061390610932565b634e487b7160e01b600052601160045260246000fd5b90600482101561039a5752565b600435906001600160a01b03821682036100d457565b156107e457565b60405162461bcd60e51b81526020600482015260116024820152702737ba10309029bab832b91020b236b4b760791b6044820152606490fd5b1561082457565b60405162461bcd60e51b815260206004820152601760248201527f50726f706f73616c20646f6573206e6f742065786973740000000000000000006044820152606490fd5b1561087057565b60405162461bcd60e51b815260206004820152601960248201527f50726f706f73616c20616c7265616479206578656375746564000000000000006044820152606490fd5b60001981146107a45760010190565b156108cb57565b60405162461bcd60e51b815260206004820152601a60248201527f5265706f7274696e6720636f6e7472616374206e6f74207365740000000000006044820152606490fd5b90601f8019910116810190811067ffffffffffffffff8211176103b057604052565b600081815260036020526040812061094c8382541461081d565b600381019081549161096160ff841615610869565b60015460011c60018101809111610c0057600283015410610bc8576001809360ff19161790550190815460ff8160a01c166004811015610bb45780610a3957505081546001600160a01b03168082526020829052604082205490919060ff1615610a0f575b50505b54907fd8e37de2213a65bc32fdb0ee5b5ab3d447bd36f2513d2ac78a00da2b7665a6ab602060405193610a028560ff8360a01c166107ba565b6001600160a01b031693a3565b60409181528060205220600160ff19825416179055610a2f6001546108b5565b60015538806109c6565b60018103610aa957505081546001600160a01b03168082526020829052604082205460ff16610a6a575b50506109c9565b8152806020526040812060ff198154169055600154908115610a955750600019016001553880610a63565b634e487b7160e01b81526011600452602490fd5b60028103610b3a5750506005546001600160a01b0316610aca8115156108c4565b82546001600160a01b0316813b15610b36578291604483926040519485938492632d7c34d760e21b84526004840152600160248401525af18015610b2b57610b135750506109c9565b610b1e828092610910565b610b285780610a63565b80fd5b6040513d84823e3d90fd5b8280fd5b600314610b485750506109c9565b6005546001600160a01b031690610b608215156108c4565b813b15610b3657604051632d7c34d760e21b81526001600160a01b039091166004820152602481018390529082908290604490829084905af18015610b2b5715610a635781610bae91610910565b38610a63565b634e487b7160e01b83526021600452602483fd5b60405162461bcd60e51b815260206004820152601060248201526f4e6f7420656e6f75676820766f74657360801b6044820152606490fd5b634e487b7160e01b85526011600452602485fdfea2646970667358221220a710870833975a36ab7dd26e0bf09fc27ce64818ae5937ed64148bb28a305ac464736f6c634300081c0033",
  "linkReferences": {},
  "deployedLinkReferences": {},
  "immutableReferences": {},
  "inputSourceName": "project/contracts/AuthorityMultiSig.sol",
  "buildInfoId": "solc-0_8_28-50e18bf187b83751ac279213027d81342957df51"
}