{
  "_format": "hh3-artifact-1",
  "contractName": "AuthorityMultiSig",
  "sourceName": "contracts/AuthorityMultiSig.sol",
  "abi": [
    {
      "inputs": [
        {
          "internalType": "address[]",
          "name": "initialSuperAdmins",
          "type": "address[]"
        },
        {
          "internalType": "address",
          "name": "_reportingContract",
          "type": "address"
        }
      ],
      "stateMutability": "nonpayable",
      "type": "constructor"
    },
    {
      "anonymous": false,
      "inputs": [
        {
          "indexed": true,
          "internalType": "uint256",
          "name": "proposalId",
          "type": "uint256"
        },
        {
          "indexed": true,
          "internalType": "address",
          "name": "target",
          "type": "address"
        },
        {
          "indexed": false,
          "internalType": "enum AuthorityMultiSig.ActionType",
          "name": "actionType",
          "type": "uint8"
        }
      ],
      "name": "ProposalExecuted",
      "type": "event"
    },
    {
      "anonymous": false,
      "inputs": [
        {
          "indexed": true,
          "internalType": "uint256",
          "name": "proposalId",
          "type": "uint256"
        },
        {
          "indexed": true,
          "internalType": "address",
          "name": "target",
          "type": "address"
        },
        {
          "indexed": false,
          "internalType": "enum AuthorityMultiSig.ActionType",
          "name": "actionType",
          "type": "uint8"
        },
        {
          "indexed": true,
          "internalType": "address",
          "name": "proposer",
          "type": "address"
        }
      ],
      "name": "ProposalSubmitted",
      "type": "event"
    },
    {
      "anonymous": false,
      "inputs": [
        {
          "indexed": true,
          "internalType": "address",
          "name": "newContract",
          "type": "address"
        }
      ],
      "name": "ReportingContractUpdated",
      "type": "event"
    },
    {
      "anonymous": false,
      "inputs": [
        {
          "indexed": true,
          "internalType": "uint256",
          "name": "proposalId",
          "type": "uint256"
        },
        {
          "indexed": true,
          "internalType": "address",
          "name": "voter",
          "type": "address"
        }
      ],
      "name": "VoteCast",
      "type": "event"
    },
    {
      "inputs": [],
      "name": "REQUIRED_APPROVALS",
      "outputs": [
        {
          "internalType": "uint256",
          "name": "",
          "type": "uint256"
        }
      ],
      "stateMutability": "view",
      "type": "function"
    },
    {
      "inputs": [
        {
          "internalType": "uint256",
          "name": "proposalId",
          "type": "uint256"
        }
      ],
      "name": "executeProposal",
      "outputs": [],
      "stateMutability": "nonpayable",
      "type": "function"
    },
    {
      "inputs": [],
      "name": "getSuperAdmins",
      "outputs": [
        {
          "internalType": "address[]",
          "name": "",
          "type": "address[]"
        }
      ],
      "stateMutability": "view",
      "type": "function"
    },
    {
      "inputs": [
        {
          "internalType": "uint256",
          "name": "",
          "type": "uint256"
        },
        {
          "internalType": "address",
          "name": "",
          "type": "address"
        }
      ],
      "name": "hasVoted",
      "outputs": [
        {
          "internalType": "bool",
          "name": "",
          "type": "bool"
        }
      ],
      "stateMutability": "view",
      "type": "function"
    },
    {
      "inputs": [
        {
          "internalType": "address",
          "name": "",
          "type": "address"
        }
      ],
      "name": "isSuperAdmin",
      "outputs": [
        {
          "internalType": "bool",
          "name": "",
          "type": "bool"
        }
      ],
      "stateMutability": "view",
      "type": "function"
    },
    {
      "inputs": [],
      "name": "proposalCount",
      "outputs": [
        {
          "internalType": "uint256",
          "name": "",
          "type": "uint256"
        }
      ],
      "stateMutability": "view",
      "type": "function"
    },
    {
      "inputs": [
        {
          "internalType": "uint256",
          "name": "",
          "type": "uint256"
        }
      ],
      "name": "proposals",
      "outputs": [
        {
          "internalType": "uint256",
          "name": "id",
          "type": "uint256"
        },
        {
          "internalType": "address",
          "name": "target",
          "type": "address"
        },
        {
          "internalType": "enum AuthorityMultiSig.ActionType",
          "name": "actionType",
          "type": "uint8"
        },
        {
          "internalType": "uint256",
          "name": "votes",
          "type": "uint256"
        },
        {
          "internalType": "bool",
          "name": "executed",
          "type": "bool"
        }
      ],
      "stateMutability": "view",
      "type": "function"
    },
    {
      "inputs": [],
      "name": "reportingContract",
      "outputs": [
        {
          "internalType": "contract IReporting",
          "name": "",
          "type": "address"
        }
      ],
      "stateMutability": "view",
      "type": "function"
    },
    {
      "inputs": [
        {
          "internalType": "address",
          "name": "_reportingContract",
          "type": "address"
        }
      ],
      "name": "setReportingContract",
      "outputs": [],
      "stateMutability": "nonpayable",
      "type": "function"
    },
    {
      "inputs": [
        {
          "internalType": "address",
          "name": "target",
          "type": "address"
        },
        {
          "internalType": "enum AuthorityMultiSig.ActionType",
          "name": "actionType",
          "type": "uint8"
        }
      ],
      "name": "submitProposal",
      "outputs": [
        {
          "internalType": "uint256",
          "name": "",
          "type": "uint256"
        }
      ],
      "stateMutability": "nonpayable",
      "type": "function"
    },
    {
      "inputs": [],
      "name": "superAdminCount",
      "outputs": [
        {
          "internalType": "uint256",
          "name": "",
          "type": "uint256"
        }
      ],
      "stateMutability": "view",
      "type": "function"
    },
    {
      "inputs": [
        {
          "internalType": "uint256",
          "name": "",
          "type": "uint256"
        }
      ],
      "name": "superAdminsList",
      "outputs": [
        {
          "internalType": "address",
          "name": "",
          "type": "address"
        }
      ],
      "stateMutability": "view",
      "type": "function"
    },
    {
      "inputs": [
        {
          "internalType": "uint256",
          "name": "proposalId",
          "type": "uint256"
        }
      ],
      "name": "vote",
      "outputs": [],
      "stateMutability": "nonpayable",
      "type": "function"
    }
  ],
  "bytecode": "0x6080604052346102b0576111ed80380380610019816102cb565b9283398101906040818303126102b05780516001600160401b0381116102b05781019180601f840112156102b0578251926001600160401b0384116102b5578360051b9060208061006b8185016102cb565b8097815201928201019283116102b057602001905b8282106102985784610094602086016102f0565b8151156102545760005b825181101561021b57600581901b8301602001516000906001600160a01b031680156101d6578082528160205260ff60408320541661019f578082528160205260408220600160ff198254161790556001546801000000000000000081101561018b57600181018060015581101561017757600183527fb10e2d527612073b26eecdfd717e6a320cf44b4afac2b0732d9fcbe2b7fa0cf60180546001600160a01b0319169091179055600254906000198214610163575060019081016002550161009e565b634e487b7160e01b81526011600452602490fd5b634e487b7160e01b83526032600452602483fd5b634e487b7160e01b83526041600452602483fd5b60405162461bcd60e51b815260206004820152600f60248201526e223ab83634b1b0ba329030b236b4b760891b6044820152606490fd5b60405162461bcd60e51b815260206004820152601560248201527f496e76616c69642061646d696e206164647265737300000000000000000000006044820152606490fd5b506001600160a01b03168061023a575b604051610ee890816103058239f35b600680546001600160a01b0319169190911790558061022b565b606460405162461bcd60e51b815260206004820152602060248201527f4d7573742068617665206174206c6561737420312073757065722061646d696e6044820152fd5b602080916102a5846102f0565b815201910190610080565b600080fd5b634e487b7160e01b600052604160045260246000fd5b6040519190601f01601f191682016001600160401b038111838210176102b557604052565b51906001600160a01b03821682036102b05756fe6080604052600436101561001257600080fd5b60003560e01c80630121b93f146107d0578063013cf08b146107635780630d58bfb91461073a5780630d61b5191461071c5780631db2a432146106da5780634385963214610682578063599c5533146106665780636b306e5b146105ed5780636c7a9249146105215780636df1328214610503578063a071e36b1461010d578063da35c664146100ef5763df7f453b146100ab57600080fd5b346100ea5760203660031901126100ea576001600160a01b036100cc61091d565b166000526000602052602060ff604060002054166040519015158152f35b600080fd5b346100ea5760003660031901126100ea576020600354604051908152f35b346100ea5760403660031901126100ea5761012661091d565b6024359060048210156100ea5733600052600060205261014d60ff60406000205416610933565b6001600160a01b031680156104c557600091806104195781600052600060205260ff604060002054166103dc575b610186600354610a0b565b91826003556040519360a0850185811067ffffffffffffffff8211176103c6576040528385526020850182815260408601916103b057838252606086019560008752608081019260008452866000526004602052604060002091518255600182019260018060a01b039051166bffffffffffffffffffffffff60a01b845416178355519660048810156103b05760039260009881549060ff60a01b9060a01b169060ff60a01b1916179055516002820155019051151560ff8019835416911617905561025560405180936108df565b827f77bdce6fa815c67b09e207eba9258850f00ed9240efd7de8040275236629943b60203394a43382528160205261029360ff604084205416610933565b8082526004602052604082206102ab82825414610973565b6102bc60ff600383015416156109bf565b81835260056020908152604080852033865290915283205460ff1661037b578183526005602090815260408085203386529091528320805460ff19166001179055600201805461030b90610a0b565b80915533827ff1003b73c437642c0460aee9cd9628b0b8c447b66e6c7c905531b9c644214a118580a360025460011c906001820180921161036757602093501015610359575b604051908152f35b61036281610a88565b610351565b634e487b7160e01b84526011600452602484fd5b60405162461bcd60e51b815260206004820152600d60248201526c105b1c9958591e481d9bdd1959609a1b6044820152606490fd5b634e487b7160e01b600052602160045260246000fd5b634e487b7160e01b600052604160045260246000fd5b60405162461bcd60e51b815260206004820152601560248201527420b63932b0b23c90309039bab832b91030b236b4b760591b6044820152606490fd5b60009250600019810161017b5781600052600060205260ff604060002054161561048c5760016002541161017b5760405162461bcd60e51b815260206004820152601e60248201527f43616e6e6f742072656d6f7665206c6173742073757065722061646d696e00006044820152606490fd5b60405162461bcd60e51b81526020600482015260116024820152702737ba10309039bab832b91030b236b4b760791b6044820152606490fd5b60405162461bcd60e51b8152602060048201526016602482015275496e76616c696420746172676574206164647265737360501b6044820152606490fd5b346100ea5760003660031901126100ea576020600254604051908152f35b346100ea5760003660031901126100ea576040518060206001549283815201809260016000527fb10e2d527612073b26eecdfd717e6a320cf44b4afac2b0732d9fcbe2b7fa0cf69060005b8181106105ce5750505081610582910382610a66565b6040519182916020830190602084525180915260408301919060005b8181106105ac575050500390f35b82516001600160a01b031684528594506020938401939092019160010161059e565b82546001600160a01b031684526020909301926001928301920161056c565b346100ea5760203660031901126100ea5761060661091d565b33600052600060205261062060ff60406000205416610933565b600680546001600160a01b0319166001600160a01b039290921691821790557f610d7b56aabcf98e5c59a3f5689addba00cb5464e5d4b0ed57d05f18c6f548e1600080a2005b346100ea5760003660031901126100ea57602060405160028152f35b346100ea5760403660031901126100ea576024356001600160a01b03811681036100ea57600435600052600560205260406000209060018060a01b0316600052602052602060ff604060002054166040519015158152f35b346100ea5760203660031901126100ea576004356001548110156100ea576107036020916108ec565b905460405160039290921b1c6001600160a01b03168152f35b346100ea5760203660031901126100ea57610738600435610a88565b005b346100ea5760003660031901126100ea576006546040516001600160a01b039091168152602090f35b346100ea5760203660031901126100ea57600435600052600460205260a060406000208054906001810154906107c260ff600360028401549301541692604051948552600180871b038116602086015260ff6040860191871c166108df565b606083015215156080820152f35b346100ea5760203660031901126100ea576004353360005260006020526107fe60ff60406000205416610933565b806000526004602052604060002061081882825414610973565b61082960ff600383015416156109bf565b600082815260056020908152604080832033845290915290205460ff1661037b5760008281526005602090815260408083203384529091529020805460ff19166001179055600201805461087c90610a0b565b80915533827ff1003b73c437642c0460aee9cd9628b0b8c447b66e6c7c905531b9c644214a11600080a360025460011c90600182018092116108c95710156108c057005b61073890610a88565b634e487b7160e01b600052601160045260246000fd5b9060048210156103b05752565b60015481101561090757600160005260206000200190600090565b634e487b7160e01b600052603260045260246000fd5b600435906001600160a01b03821682036100ea57565b1561093a57565b60405162461bcd60e51b81526020600482015260116024820152702737ba10309029bab832b91020b236b4b760791b6044820152606490fd5b1561097a57565b60405162461bcd60e51b815260206004820152601760248201527f50726f706f73616c20646f6573206e6f742065786973740000000000000000006044820152606490fd5b156109c657565b60405162461bcd60e51b815260206004820152601960248201527f50726f706f73616c20616c7265616479206578656375746564000000000000006044820152606490fd5b60001981146108c95760010190565b15610a2157565b60405162461bcd60e51b815260206004820152601a60248201527f5265706f7274696e6720636f6e7472616374206e6f74207365740000000000006044820152606490fd5b90601f8019910116810190811067ffffffffffffffff8211176103c657604052565b600090808252600460205260408220610aa382825414610973565b6003810190815491610ab860ff8416156109bf565b60025460011c60018101809111610e9e57600283015410610e66576001809360ff191617905501805460ff8160a01c166004811015610e525780610bfd57505080546001600160a01b0316808452602084905260408420549293919260ff1615610b66575b50505b54907fd8e37de2213a65bc32fdb0ee5b5ab3d447bd36f2513d2ac78a00da2b7665a6ab602060405193610b598560ff8360a01c166108df565b6001600160a01b031693a3565b81528060205260408120600160ff1982541617905560018060a01b03825416906001549068010000000000000000821015610be9575090610bb0826001610bd494016001556108ec565b81546001600160a01b0393841660039290921b91821b9390911b1916919091179055565b610bdf600254610a0b565b6002553880610b1d565b634e487b7160e01b81526041600452602490fd5b60018103610d4257505080546001600160a01b03168084526020849052604084205460ff16610c30575b50909150610b20565b8352826020526040832060ff198154169055825b60015480821015610d3957610c58826108ec565b9054845460039290921b1c6001600160a01b03908116911614610c7e5750600101610c44565b929391926000198101908111610d255790610bb0610c9e610cb6936108ec565b905460039190911b1c6001600160a01b0316916108ec565b6001548015610d115760001901610ccc816108ec565b81549060018060a01b039060031b1b191690556001555b600254908115610cfd575060001901600255819038610c27565b634e487b7160e01b81526011600452602490fd5b634e487b7160e01b82526031600452602482fd5b634e487b7160e01b83526011600452602483fd5b50509091610ce3565b9293919260028103610dd85750506006546001600160a01b0316610d67811515610a1a565b82546001600160a01b0316813b15610dd4578291604483926040519485938492632d7c34d760e21b84526004840152600160248401525af18015610dc957610db1575b5050610b20565b610dbc828092610a66565b610dc65780610daa565b80fd5b6040513d84823e3d90fd5b8280fd5b600314610de6575050610b20565b6006546001600160a01b031690610dfe821515610a1a565b813b15610dd457604051632d7c34d760e21b81526001600160a01b039091166004820152602481018390529082908290604490829084905af18015610dc95715610daa5781610e4c91610a66565b38610daa565b634e487b7160e01b85526021600452602485fd5b60405162461bcd60e51b815260206004820152601060248201526f4e6f7420656e6f75676820766f74657360801b6044820152606490fd5b634e487b7160e01b86526011600452602486fdfea26469706673582212204f3d3f8c89151defbdae2474a36d8fb4671725bb8538f1560c785184482275d164736f6c634300081c0033",
  "linkReferences": {},
  "deployedLinkReferences": {},
  "immutableReferences": {},
  "inputSourceName": "project/contracts/AuthorityMultiSig.sol",
  "buildInfoId": "solc-0_8_28-edd2eefcc566f80d98345ccc256b9c610117ffff"
}