{
  "_format": "hh3-artifact-1",
  "contractName": "OpinionPolling",
  "sourceName": "contracts/OpinionPolling.sol",
  "abi": [
    {
      "inputs": [
        {
          "internalType": "address",
          "name": "_reportingContract",
          "type": "address"
        },
        {
          "internalType": "address",
          "name": "_aiOracleAddress",
          "type": "address"
        }
      ],
      "stateMutability": "nonpayable",
      "type": "constructor"
    },
    {
      "inputs": [],
      "name": "AlreadyVoted",
      "type": "error"
    },
    {
      "inputs": [],
      "name": "ECDSAInvalidSignature",
      "type": "error"
    },
    {
      "inputs": [
        {
          "internalType": "uint256",
          "name": "length",
          "type": "uint256"
        }
      ],
      "name": "ECDSAInvalidSignatureLength",
      "type": "error"
    },
    {
      "inputs": [
        {
          "internalType": "bytes32",
          "name": "s",
          "type": "bytes32"
        }
      ],
      "name": "ECDSAInvalidSignatureS",
      "type": "error"
    },
    {
      "inputs": [],
      "name": "InvalidDeadline",
      "type": "error"
    },
    {
      "inputs": [],
      "name": "InvalidOracleSignature",
      "type": "error"
    },
    {
      "inputs": [],
      "name": "InvalidTicketId",
      "type": "error"
    },
    {
      "inputs": [],
      "name": "PollInactiveOrClosed",
      "type": "error"
    },
    {
      "inputs": [],
      "name": "UnauthorizedAuthority",
      "type": "error"
    },
    {
      "anonymous": false,
      "inputs": [
        {
          "indexed": true,
          "internalType": "uint256",
          "name": "pollId",
          "type": "uint256"
        },
        {
          "indexed": true,
          "internalType": "address",
          "name": "creator",
          "type": "address"
        },
        {
          "indexed": false,
          "internalType": "bytes32",
          "name": "contentHash",
          "type": "bytes32"
        },
        {
          "indexed": false,
          "internalType": "uint256",
          "name": "deadline",
          "type": "uint256"
        },
        {
          "indexed": false,
          "internalType": "uint256",
          "name": "ticketId",
          "type": "uint256"
        }
      ],
      "name": "PollCreated",
      "type": "event"
    },
    {
      "anonymous": false,
      "inputs": [
        {
          "indexed": true,
          "internalType": "uint256",
          "name": "pollId",
          "type": "uint256"
        },
        {
          "indexed": true,
          "internalType": "address",
          "name": "voter",
          "type": "address"
        },
        {
          "indexed": false,
          "internalType": "uint256",
          "name": "optionIndex",
          "type": "uint256"
        }
      ],
      "name": "VoteCast",
      "type": "event"
    },
    {
      "inputs": [],
      "name": "APPROVAL_TYPEHASH",
      "outputs": [
        {
          "internalType": "bytes32",
          "name": "",
          "type": "bytes32"
        }
      ],
      "stateMutability": "view",
      "type": "function"
    },
    {
      "inputs": [],
      "name": "DOMAIN_SEPARATOR",
      "outputs": [
        {
          "internalType": "bytes32",
          "name": "",
          "type": "bytes32"
        }
      ],
      "stateMutability": "view",
      "type": "function"
    },
    {
      "inputs": [],
      "name": "aiOracleAddress",
      "outputs": [
        {
          "internalType": "address",
          "name": "",
          "type": "address"
        }
      ],
      "stateMutability": "view",
      "type": "function"
    },
    {
      "inputs": [
        {
          "internalType": "uint256",
          "name": "pollId",
          "type": "uint256"
        },
        {
          "internalType": "uint256",
          "name": "optionIndex",
          "type": "uint256"
        }
      ],
      "name": "castVote",
      "outputs": [],
      "stateMutability": "nonpayable",
      "type": "function"
    },
    {
      "inputs": [
        {
          "internalType": "bytes32",
          "name": "contentHash",
          "type": "bytes32"
        },
        {
          "internalType": "uint256",
          "name": "deadline",
          "type": "uint256"
        },
        {
          "internalType": "uint256",
          "name": "ticketId",
          "type": "uint256"
        },
        {
          "internalType": "bytes",
          "name": "oracleSignature",
          "type": "bytes"
        }
      ],
      "name": "createOfficialPoll",
      "outputs": [
        {
          "internalType": "uint256",
          "name": "",
          "type": "uint256"
        }
      ],
      "stateMutability": "nonpayable",
      "type": "function"
    },
    {
      "inputs": [
        {
          "internalType": "uint256",
          "name": "pollId",
          "type": "uint256"
        },
        {
          "internalType": "uint256",
          "name": "optionIndex",
          "type": "uint256"
        }
      ],
      "name": "getOptionResult",
      "outputs": [
        {
          "internalType": "uint256",
          "name": "",
          "type": "uint256"
        }
      ],
      "stateMutability": "view",
      "type": "function"
    },
    {
      "inputs": [
        {
          "internalType": "uint256",
          "name": "",
          "type": "uint256"
        },
        {
          "internalType": "address",
          "name": "",
          "type": "address"
        }
      ],
      "name": "hasVoted",
      "outputs": [
        {
          "internalType": "bool",
          "name": "",
          "type": "bool"
        }
      ],
      "stateMutability": "view",
      "type": "function"
    },
    {
      "inputs": [],
      "name": "pollCount",
      "outputs": [
        {
          "internalType": "uint256",
          "name": "",
          "type": "uint256"
        }
      ],
      "stateMutability": "view",
      "type": "function"
    },
    {
      "inputs": [
        {
          "internalType": "uint256",
          "name": "",
          "type": "uint256"
        },
        {
          "internalType": "uint256",
          "name": "",
          "type": "uint256"
        }
      ],
      "name": "pollResults",
      "outputs": [
        {
          "internalType": "uint256",
          "name": "",
          "type": "uint256"
        }
      ],
      "stateMutability": "view",
      "type": "function"
    },
    {
      "inputs": [
        {
          "internalType": "uint256",
          "name": "",
          "type": "uint256"
        }
      ],
      "name": "polls",
      "outputs": [
        {
          "internalType": "uint256",
          "name": "id",
          "type": "uint256"
        },
        {
          "internalType": "address",
          "name": "creator",
          "type": "address"
        },
        {
          "internalType": "bytes32",
          "name": "contentHash",
          "type": "bytes32"
        },
        {
          "internalType": "uint256",
          "name": "deadline",
          "type": "uint256"
        },
        {
          "internalType": "uint256",
          "name": "ticketId",
          "type": "uint256"
        },
        {
          "internalType": "bool",
          "name": "isActive",
          "type": "bool"
        }
      ],
      "stateMutability": "view",
      "type": "function"
    },
    {
      "inputs": [],
      "name": "reportingContract",
      "outputs": [
        {
          "internalType": "contract IReporting",
          "name": "",
          "type": "address"
        }
      ],
      "stateMutability": "view",
      "type": "function"
    }
  ],
  "bytecode": "0x60e060405234801561000f575f5ffd5b506040516117ec3803806117ec833981810160405281019061003191906102a8565b5f73ffffffffffffffffffffffffffffffffffffffff168273ffffffffffffffffffffffffffffffffffffffff160361009f576040517f08c379a000000000000000000000000000000000000000000000000000000000815260040161009690610340565b60405180910390fd5b5f73ffffffffffffffffffffffffffffffffffffffff168173ffffffffffffffffffffffffffffffffffffffff160361010d576040517f08c379a0000000000000000000000000000000000000000000000000000000008152600401610104906103a8565b60405180910390fd5b8173ffffffffffffffffffffffffffffffffffffffff1660808173ffffffffffffffffffffffffffffffffffffffff16815250508073ffffffffffffffffffffffffffffffffffffffff1660a08173ffffffffffffffffffffffffffffffffffffffff16815250507f8b73c3c69bb8fe3d512ecc4cf759cc79239f7b179b0ffacaa9a75d522b39400f6040518060400160405280600e81526020017f4f70696e696f6e506f6c6c696e67000000000000000000000000000000000000815250805190602001206040518060400160405280600181526020017f3100000000000000000000000000000000000000000000000000000000000000815250805190602001204630604051602001610226959493929190610405565b6040516020818303038152906040528051906020012060c081815250505050610456565b5f5ffd5b5f73ffffffffffffffffffffffffffffffffffffffff82169050919050565b5f6102778261024e565b9050919050565b6102878161026d565b8114610291575f5ffd5b50565b5f815190506102a28161027e565b92915050565b5f5f604083850312156102be576102bd61024a565b5b5f6102cb85828601610294565b92505060206102dc85828601610294565b9150509250929050565b5f82825260208201905092915050565b7f496e76616c6964207265706f7274696e6720636f6e74726163740000000000005f82015250565b5f61032a601a836102e6565b9150610335826102f6565b602082019050919050565b5f6020820190508181035f8301526103578161031e565b9050919050565b7f496e76616c6964206f7261636c652061646472657373000000000000000000005f82015250565b5f6103926016836102e6565b915061039d8261035e565b602082019050919050565b5f6020820190508181035f8301526103bf81610386565b9050919050565b5f819050919050565b6103d8816103c6565b82525050565b5f819050919050565b6103f0816103de565b82525050565b6103ff8161026d565b82525050565b5f60a0820190506104185f8301886103cf565b61042560208301876103cf565b61043260408301866103cf565b61043f60608301856103e7565b61044c60808301846103f6565b9695505050505050565b60805160a05160c05161135061049c5f395f8181610461015261070601525f818161077f015261098b01525f8181610254015281816104da01526105eb01526113505ff3fe608060405234801561000f575f5ffd5b50600436106100a7575f3560e01c806359c4c0e71161006f57806359c4c0e71461016357806365a72497146101935780637b15e5df146101b15780639207891d146101cf578063ac2f0074146101ed578063c6af250c14610222576100a7565b80630d58bfb9146100ab5780632c0a3f89146100c95780633644e515146100e55780634385963214610103578063590971fc14610133575b5f5ffd5b6100b3610252565b6040516100c09190610db7565b60405180910390f35b6100e360048036038101906100de9190610e0b565b610276565b005b6100ed61045f565b6040516100fa9190610e61565b60405180910390f35b61011d60048036038101906101189190610eb5565b610483565b60405161012a9190610f0d565b60405180910390f35b61014d60048036038101906101489190610e0b565b6104ad565b60405161015a9190610f35565b60405180910390f35b61017d60048036038101906101789190610fd9565b6104d7565b60405161018a9190610f35565b60405180910390f35b61019b610965565b6040516101a89190610e61565b60405180910390f35b6101b9610989565b6040516101c6919061106c565b60405180910390f35b6101d76109ad565b6040516101e49190610f35565b60405180910390f35b61020760048036038101906102029190611085565b6109b2565b604051610219969594939291906110b0565b60405180910390f35b61023c60048036038101906102379190610e0b565b610a15565b6040516102499190610f35565b60405180910390f35b7f000000000000000000000000000000000000000000000000000000000000000081565b5f60015f8481526020019081526020015f209050806005015f9054906101000a900460ff1615806102ab575080600301544210155b156102e2576040517f78045ee600000000000000000000000000000000000000000000000000000000815260040160405180910390fd5b60035f8481526020019081526020015f205f3373ffffffffffffffffffffffffffffffffffffffff1673ffffffffffffffffffffffffffffffffffffffff1681526020019081526020015f205f9054906101000a900460ff1615610372576040517f7c9a1cf900000000000000000000000000000000000000000000000000000000815260040160405180910390fd5b600160035f8581526020019081526020015f205f3373ffffffffffffffffffffffffffffffffffffffff1673ffffffffffffffffffffffffffffffffffffffff1681526020019081526020015f205f6101000a81548160ff02191690831515021790555060025f8481526020019081526020015f205f8381526020019081526020015f205f8154809291906104069061113c565b91905055503373ffffffffffffffffffffffffffffffffffffffff16837f2acce567deca3aabf56327adbb4524bd5318936eaefa69e3a5208ffda0cfec09846040516104529190610f35565b60405180910390a3505050565b7f000000000000000000000000000000000000000000000000000000000000000081565b6003602052815f5260405f20602052805f5260405f205f915091509054906101000a900460ff1681565b5f60025f8481526020019081526020015f205f8381526020019081526020015f2054905092915050565b5f7f000000000000000000000000000000000000000000000000000000000000000073ffffffffffffffffffffffffffffffffffffffff166366dc4015336040518263ffffffff1660e01b8152600401610531919061106c565b602060405180830381865afa15801561054c573d5f5f3e3d5ffd5b505050506040513d601f19601f8201168201806040525081019061057091906111ad565b6105a6576040517fb9739d1b00000000000000000000000000000000000000000000000000000000815260040160405180910390fd5b4285116105df576040517f769d11e400000000000000000000000000000000000000000000000000000000815260040160405180910390fd5b5f8411801561067957507f000000000000000000000000000000000000000000000000000000000000000073ffffffffffffffffffffffffffffffffffffffff1663185c6f846040518163ffffffff1660e01b8152600401602060405180830381865afa158015610652573d5f5f3e3d5ffd5b505050506040513d601f19601f8201168201806040525081019061067691906111ec565b84115b156106b0576040517f369cb27700000000000000000000000000000000000000000000000000000000815260040160405180910390fd5b5f7f573a7ca519319b9e174e9cdf6bd865f9020cac1b1cd1970ec5b3eac32ba4294c8787876040516020016106e89493929190611217565b6040516020818303038152906040528051906020012090505f61072b7f000000000000000000000000000000000000000000000000000000000000000083610a35565b90505f61077b8287878080601f0160208091040260200160405190810160405280939291908181526020018383808284375f81840152601f19601f82011690508083019250505050505050610a75565b90507f000000000000000000000000000000000000000000000000000000000000000073ffffffffffffffffffffffffffffffffffffffff168173ffffffffffffffffffffffffffffffffffffffff1614610802576040517f2f58c7cd00000000000000000000000000000000000000000000000000000000815260040160405180910390fd5b5f5f8154809291906108139061113c565b91905055505f5f5490506040518060c001604052808281526020013373ffffffffffffffffffffffffffffffffffffffff1681526020018b81526020018a81526020018981526020016001151581525060015f8381526020019081526020015f205f820151815f01556020820151816001015f6101000a81548173ffffffffffffffffffffffffffffffffffffffff021916908373ffffffffffffffffffffffffffffffffffffffff16021790555060408201518160020155606082015181600301556080820151816004015560a0820151816005015f6101000a81548160ff0219169083151502179055509050503373ffffffffffffffffffffffffffffffffffffffff16817f189f36650d29f3a9f4fd67c178792a76722bbb99f14ecbffec9bbebb358f8e6d8c8c8c60405161094d9392919061125a565b60405180910390a38094505050505095945050505050565b7f573a7ca519319b9e174e9cdf6bd865f9020cac1b1cd1970ec5b3eac32ba4294c81565b7f000000000000000000000000000000000000000000000000000000000000000081565b5f5481565b6001602052805f5260405f205f91509050805f015490806001015f9054906101000a900473ffffffffffffffffffffffffffffffffffffffff1690806002015490806003015490806004015490806005015f9054906101000a900460ff16905086565b6002602052815f5260405f20602052805f5260405f205f91509150505481565b5f6040517f190100000000000000000000000000000000000000000000000000000000000081528360028201528260228201526042812091505092915050565b5f5f5f5f610a838686610a9f565b925092509250610a938282610af4565b82935050505092915050565b5f5f5f6041845103610adf575f5f5f602087015192506040870151915060608701515f1a9050610ad188828585610c56565b955095509550505050610aed565b5f600285515f1b9250925092505b9250925092565b5f6003811115610b0757610b0661128f565b5b826003811115610b1a57610b1961128f565b5b0315610c525760016003811115610b3457610b3361128f565b5b826003811115610b4757610b4661128f565b5b03610b7e576040517ff645eedf00000000000000000000000000000000000000000000000000000000815260040160405180910390fd5b60026003811115610b9257610b9161128f565b5b826003811115610ba557610ba461128f565b5b03610be957805f1c6040517ffce698f7000000000000000000000000000000000000000000000000000000008152600401610be09190610f35565b60405180910390fd5b600380811115610bfc57610bfb61128f565b5b826003811115610c0f57610c0e61128f565b5b03610c5157806040517fd78bce0c000000000000000000000000000000000000000000000000000000008152600401610c489190610e61565b60405180910390fd5b5b5050565b5f5f5f7f7fffffffffffffffffffffffffffffff5d576e7357a4501ddfe92f46681b20a0845f1c1115610c92575f600385925092509250610d33565b5f6001888888886040515f8152602001604052604051610cb594939291906112d7565b6020604051602081039080840390855afa158015610cd5573d5f5f3e3d5ffd5b5050506020604051035190505f73ffffffffffffffffffffffffffffffffffffffff168173ffffffffffffffffffffffffffffffffffffffff1603610d26575f60015f5f1b93509350935050610d33565b805f5f5f1b935093509350505b9450945094915050565b5f73ffffffffffffffffffffffffffffffffffffffff82169050919050565b5f819050919050565b5f610d7f610d7a610d7584610d3d565b610d5c565b610d3d565b9050919050565b5f610d9082610d65565b9050919050565b5f610da182610d86565b9050919050565b610db181610d97565b82525050565b5f602082019050610dca5f830184610da8565b92915050565b5f5ffd5b5f5ffd5b5f819050919050565b610dea81610dd8565b8114610df4575f5ffd5b50565b5f81359050610e0581610de1565b92915050565b5f5f60408385031215610e2157610e20610dd0565b5b5f610e2e85828601610df7565b9250506020610e3f85828601610df7565b9150509250929050565b5f819050919050565b610e5b81610e49565b82525050565b5f602082019050610e745f830184610e52565b92915050565b5f610e8482610d3d565b9050919050565b610e9481610e7a565b8114610e9e575f5ffd5b50565b5f81359050610eaf81610e8b565b92915050565b5f5f60408385031215610ecb57610eca610dd0565b5b5f610ed885828601610df7565b9250506020610ee985828601610ea1565b9150509250929050565b5f8115159050919050565b610f0781610ef3565b82525050565b5f602082019050610f205f830184610efe565b92915050565b610f2f81610dd8565b82525050565b5f602082019050610f485f830184610f26565b92915050565b610f5781610e49565b8114610f61575f5ffd5b50565b5f81359050610f7281610f4e565b92915050565b5f5ffd5b5f5ffd5b5f5ffd5b5f5f83601f840112610f9957610f98610f78565b5b8235905067ffffffffffffffff811115610fb657610fb5610f7c565b5b602083019150836001820283011115610fd257610fd1610f80565b5b9250929050565b5f5f5f5f5f60808688031215610ff257610ff1610dd0565b5b5f610fff88828901610f64565b955050602061101088828901610df7565b945050604061102188828901610df7565b935050606086013567ffffffffffffffff81111561104257611041610dd4565b5b61104e88828901610f84565b92509250509295509295909350565b61106681610e7a565b82525050565b5f60208201905061107f5f83018461105d565b92915050565b5f6020828403121561109a57611099610dd0565b5b5f6110a784828501610df7565b91505092915050565b5f60c0820190506110c35f830189610f26565b6110d0602083018861105d565b6110dd6040830187610e52565b6110ea6060830186610f26565b6110f76080830185610f26565b61110460a0830184610efe565b979650505050505050565b7f4e487b71000000000000000000000000000000000000000000000000000000005f52601160045260245ffd5b5f61114682610dd8565b91507fffffffffffffffffffffffffffffffffffffffffffffffffffffffffffffffff82036111785761117761110f565b5b600182019050919050565b61118c81610ef3565b8114611196575f5ffd5b50565b5f815190506111a781611183565b92915050565b5f602082840312156111c2576111c1610dd0565b5b5f6111cf84828501611199565b91505092915050565b5f815190506111e681610de1565b92915050565b5f6020828403121561120157611200610dd0565b5b5f61120e848285016111d8565b91505092915050565b5f60808201905061122a5f830187610e52565b6112376020830186610e52565b6112446040830185610f26565b6112516060830184610f26565b95945050505050565b5f60608201905061126d5f830186610e52565b61127a6020830185610f26565b6112876040830184610f26565b949350505050565b7f4e487b71000000000000000000000000000000000000000000000000000000005f52602160045260245ffd5b5f60ff82169050919050565b6112d1816112bc565b82525050565b5f6080820190506112ea5f830187610e52565b6112f760208301866112c8565b6113046040830185610e52565b6113116060830184610e52565b9594505050505056fea2646970667358221220f85f3372735fafc11ab44c724b0db5e57fd15a10bca5685536d33f0e12e4bf6164736f6c634300081c0033",
  "linkReferences": {},
  "deployedLinkReferences": {},
  "immutableReferences": {
    "7602": [
      {
        "length": 32,
        "start": 596
      },
      {
        "length": 32,
        "start": 1242
      },
      {
        "length": 32,
        "start": 1515
      }
    ],
    "7604": [
      {
        "length": 32,
        "start": 1919
      },
      {
        "length": 32,
        "start": 2443
      }
    ],
    "7606": [
      {
        "length": 32,
        "start": 1121
      },
      {
        "length": 32,
        "start": 1798
      }
    ]
  },
  "inputSourceName": "project/contracts/OpinionPolling.sol",
  "buildInfoId": "solc-0_8_28-c5e804dba88f9c11877644c113c3c38cdb424739"
}