{
  "_format": "hh3-artifact-1",
  "contractName": "Reporting",
  "sourceName": "contracts/Reporting.sol",
  "abi": [
    {
      "inputs": [],
      "stateMutability": "nonpayable",
      "type": "constructor"
    },
    {
      "inputs": [],
      "name": "EmptyCID",
      "type": "error"
    },
    {
      "inputs": [],
      "name": "InvalidHash",
      "type": "error"
    },
    {
      "inputs": [],
      "name": "InvalidNullifier",
      "type": "error"
    },
    {
      "inputs": [],
      "name": "InvalidPagination",
      "type": "error"
    },
    {
      "inputs": [],
      "name": "InvalidPseudonym",
      "type": "error"
    },
    {
      "inputs": [],
      "name": "InvalidReportId",
      "type": "error"
    },
    {
      "inputs": [],
      "name": "InvalidState",
      "type": "error"
    },
    {
      "inputs": [],
      "name": "NullifierAlreadyUsed",
      "type": "error"
    },
    {
      "inputs": [
        {
          "internalType": "address",
          "name": "owner",
          "type": "address"
        }
      ],
      "name": "OwnableInvalidOwner",
      "type": "error"
    },
    {
      "inputs": [
        {
          "internalType": "address",
          "name": "account",
          "type": "address"
        }
      ],
      "name": "OwnableUnauthorizedAccount",
      "type": "error"
    },
    {
      "inputs": [],
      "name": "ReentrancyGuardReentrantCall",
      "type": "error"
    },
    {
      "inputs": [],
      "name": "Unauthorized",
      "type": "error"
    },
    {
      "inputs": [],
      "name": "VotingWindowClosed",
      "type": "error"
    },
    {
      "inputs": [],
      "name": "VotingWindowStillOpen",
      "type": "error"
    },
    {
      "anonymous": false,
      "inputs": [
        {
          "indexed": true,
          "internalType": "address",
          "name": "previousOwner",
          "type": "address"
        },
        {
          "indexed": true,
          "internalType": "address",
          "name": "newOwner",
          "type": "address"
        }
      ],
      "name": "OwnershipTransferred",
      "type": "event"
    },
    {
      "anonymous": false,
      "inputs": [
        {
          "indexed": true,
          "internalType": "uint256",
          "name": "reportId",
          "type": "uint256"
        },
        {
          "indexed": true,
          "internalType": "address",
          "name": "authority",
          "type": "address"
        },
        {
          "indexed": false,
          "internalType": "uint256",
          "name": "timestamp",
          "type": "uint256"
        }
      ],
      "name": "ReportMarkedSolved",
      "type": "event"
    },
    {
      "anonymous": false,
      "inputs": [
        {
          "indexed": true,
          "internalType": "uint256",
          "name": "reportId",
          "type": "uint256"
        },
        {
          "indexed": true,
          "internalType": "address",
          "name": "authority",
          "type": "address"
        },
        {
          "indexed": false,
          "internalType": "uint256",
          "name": "timestamp",
          "type": "uint256"
        }
      ],
      "name": "ReportRejectedByAuthority",
      "type": "event"
    },
    {
      "anonymous": false,
      "inputs": [
        {
          "indexed": true,
          "internalType": "uint256",
          "name": "reportId",
          "type": "uint256"
        },
        {
          "indexed": false,
          "internalType": "enum Reporting.ReportStatus",
          "name": "previousStatus",
          "type": "uint8"
        },
        {
          "indexed": false,
          "internalType": "enum Reporting.ReportStatus",
          "name": "newStatus",
          "type": "uint8"
        },
        {
          "indexed": false,
          "internalType": "uint256",
          "name": "timestamp",
          "type": "uint256"
        }
      ],
      "name": "ReportStatusChanged",
      "type": "event"
    },
    {
      "anonymous": false,
      "inputs": [
        {
          "indexed": true,
          "internalType": "uint256",
          "name": "reportId",
          "type": "uint256"
        },
        {
          "indexed": false,
          "internalType": "string",
          "name": "ipfsCid",
          "type": "string"
        },
        {
          "indexed": true,
          "internalType": "bytes32",
          "name": "reportHash",
          "type": "bytes32"
        },
        {
          "indexed": true,
          "internalType": "bytes32",
          "name": "submissionNullifier",
          "type": "bytes32"
        },
        {
          "indexed": false,
          "internalType": "bytes32",
          "name": "citizenPseudonym",
          "type": "bytes32"
        },
        {
          "indexed": false,
          "internalType": "uint256",
          "name": "timestamp",
          "type": "uint256"
        }
      ],
      "name": "ReportSubmitted",
      "type": "event"
    },
    {
      "anonymous": false,
      "inputs": [
        {
          "indexed": true,
          "internalType": "uint256",
          "name": "reportId",
          "type": "uint256"
        },
        {
          "indexed": true,
          "internalType": "bytes32",
          "name": "voteNullifier",
          "type": "bytes32"
        },
        {
          "indexed": false,
          "internalType": "bool",
          "name": "support",
          "type": "bool"
        },
        {
          "indexed": false,
          "internalType": "uint256",
          "name": "upvotes",
          "type": "uint256"
        },
        {
          "indexed": false,
          "internalType": "uint256",
          "name": "downvotes",
          "type": "uint256"
        }
      ],
      "name": "ValidationVoteCast",
      "type": "event"
    },
    {
      "anonymous": false,
      "inputs": [
        {
          "indexed": true,
          "internalType": "uint256",
          "name": "reportId",
          "type": "uint256"
        },
        {
          "indexed": false,
          "internalType": "enum Reporting.ReportStatus",
          "name": "previousStatus",
          "type": "uint8"
        },
        {
          "indexed": false,
          "internalType": "enum Reporting.ReportStatus",
          "name": "newStatus",
          "type": "uint8"
        },
        {
          "indexed": false,
          "internalType": "uint256",
          "name": "timestamp",
          "type": "uint256"
        }
      ],
      "name": "VotingWindowFinalized",
      "type": "event"
    },
    {
      "anonymous": false,
      "inputs": [
        {
          "indexed": true,
          "internalType": "uint256",
          "name": "reportId",
          "type": "uint256"
        },
        {
          "indexed": true,
          "internalType": "address",
          "name": "authority",
          "type": "address"
        },
        {
          "indexed": false,
          "internalType": "uint256",
          "name": "timestamp",
          "type": "uint256"
        }
      ],
      "name": "WorkStarted",
      "type": "event"
    },
    {
      "inputs": [
        {
          "internalType": "address",
          "name": "",
          "type": "address"
        }
      ],
      "name": "authorizedAuthorities",
      "outputs": [
        {
          "internalType": "bool",
          "name": "",
          "type": "bool"
        }
      ],
      "stateMutability": "view",
      "type": "function"
    },
    {
      "inputs": [
        {
          "internalType": "address",
          "name": "",
          "type": "address"
        }
      ],
      "name": "authorizedRelayers",
      "outputs": [
        {
          "internalType": "bool",
          "name": "",
          "type": "bool"
        }
      ],
      "stateMutability": "view",
      "type": "function"
    },
    {
      "inputs": [
        {
          "internalType": "uint256",
          "name": "offset",
          "type": "uint256"
        },
        {
          "internalType": "uint256",
          "name": "limit",
          "type": "uint256"
        }
      ],
      "name": "getAllReports",
      "outputs": [
        {
          "components": [
            {
              "internalType": "uint256",
              "name": "id",
              "type": "uint256"
            },
            {
              "internalType": "string",
              "name": "ipfsCid",
              "type": "string"
            },
            {
              "internalType": "bytes32",
              "name": "reportHash",
              "type": "bytes32"
            },
            {
              "internalType": "bytes32",
              "name": "submissionNullifier",
              "type": "bytes32"
            },
            {
              "internalType": "bytes32",
              "name": "citizenPseudonym",
              "type": "bytes32"
            },
            {
              "internalType": "address",
              "name": "submittedByRelayer",
              "type": "address"
            },
            {
              "internalType": "enum Reporting.ReportStatus",
              "name": "status",
              "type": "uint8"
            },
            {
              "internalType": "uint256",
              "name": "createdAt",
              "type": "uint256"
            },
            {
              "internalType": "uint256",
              "name": "updatedAt",
              "type": "uint256"
            },
            {
              "internalType": "uint256",
              "name": "phaseDeadline",
              "type": "uint256"
            },
            {
              "internalType": "address",
              "name": "assignedAuthority",
              "type": "address"
            },
            {
              "components": [
                {
                  "internalType": "uint256",
                  "name": "validationUpvotes",
                  "type": "uint256"
                },
                {
                  "internalType": "uint256",
                  "name": "validationDownvotes",
                  "type": "uint256"
                },
                {
                  "internalType": "uint256",
                  "name": "verificationAcceptVotes",
                  "type": "uint256"
                },
                {
                  "internalType": "uint256",
                  "name": "verificationRejectVotes",
                  "type": "uint256"
                },
                {
                  "internalType": "uint256",
                  "name": "rejectionUpholdVotes",
                  "type": "uint256"
                },
                {
                  "internalType": "uint256",
                  "name": "rejectionAppealVotes",
                  "type": "uint256"
                }
              ],
              "internalType": "struct Reporting.VoteCounters",
              "name": "votes",
              "type": "tuple"
            }
          ],
          "internalType": "struct Reporting.Report[]",
          "name": "page",
          "type": "tuple[]"
        },
        {
          "internalType": "uint256",
          "name": "total",
          "type": "uint256"
        }
      ],
      "stateMutability": "view",
      "type": "function"
    },
    {
      "inputs": [
        {
          "internalType": "uint256",
          "name": "reportId",
          "type": "uint256"
        }
      ],
      "name": "getReport",
      "outputs": [
        {
          "components": [
            {
              "internalType": "uint256",
              "name": "id",
              "type": "uint256"
            },
            {
              "internalType": "string",
              "name": "ipfsCid",
              "type": "string"
            },
            {
              "internalType": "bytes32",
              "name": "reportHash",
              "type": "bytes32"
            },
            {
              "internalType": "bytes32",
              "name": "submissionNullifier",
              "type": "bytes32"
            },
            {
              "internalType": "bytes32",
              "name": "citizenPseudonym",
              "type": "bytes32"
            },
            {
              "internalType": "address",
              "name": "submittedByRelayer",
              "type": "address"
            },
            {
              "internalType": "enum Reporting.ReportStatus",
              "name": "status",
              "type": "uint8"
            },
            {
              "internalType": "uint256",
              "name": "createdAt",
              "type": "uint256"
            },
            {
              "internalType": "uint256",
              "name": "updatedAt",
              "type": "uint256"
            },
            {
              "internalType": "uint256",
              "name": "phaseDeadline",
              "type": "uint256"
            },
            {
              "internalType": "address",
              "name": "assignedAuthority",
              "type": "address"
            },
            {
              "components": [
                {
                  "internalType": "uint256",
                  "name": "validationUpvotes",
                  "type": "uint256"
                },
                {
                  "internalType": "uint256",
                  "name": "validationDownvotes",
                  "type": "uint256"
                },
                {
                  "internalType": "uint256",
                  "name": "verificationAcceptVotes",
                  "type": "uint256"
                },
                {
                  "internalType": "uint256",
                  "name": "verificationRejectVotes",
                  "type": "uint256"
                },
                {
                  "internalType": "uint256",
                  "name": "rejectionUpholdVotes",
                  "type": "uint256"
                },
                {
                  "internalType": "uint256",
                  "name": "rejectionAppealVotes",
                  "type": "uint256"
                }
              ],
              "internalType": "struct Reporting.VoteCounters",
              "name": "votes",
              "type": "tuple"
            }
          ],
          "internalType": "struct Reporting.Report",
          "name": "",
          "type": "tuple"
        }
      ],
      "stateMutability": "view",
      "type": "function"
    },
    {
      "inputs": [
        {
          "internalType": "bytes32",
          "name": "citizenPseudonym",
          "type": "bytes32"
        }
      ],
      "name": "getReportCountByCitizen",
      "outputs": [
        {
          "internalType": "uint256",
          "name": "",
          "type": "uint256"
        }
      ],
      "stateMutability": "view",
      "type": "function"
    },
    {
      "inputs": [
        {
          "internalType": "bytes32",
          "name": "citizenPseudonym",
          "type": "bytes32"
        }
      ],
      "name": "getReportIdsByCitizen",
      "outputs": [
        {
          "internalType": "uint256[]",
          "name": "ids",
          "type": "uint256[]"
        }
      ],
      "stateMutability": "view",
      "type": "function"
    },
    {
      "inputs": [
        {
          "internalType": "bytes32",
          "name": "citizenPseudonym",
          "type": "bytes32"
        },
        {
          "internalType": "uint256",
          "name": "offset",
          "type": "uint256"
        },
        {
          "internalType": "uint256",
          "name": "limit",
          "type": "uint256"
        }
      ],
      "name": "getReportsByCitizen",
      "outputs": [
        {
          "components": [
            {
              "internalType": "uint256",
              "name": "id",
              "type": "uint256"
            },
            {
              "internalType": "string",
              "name": "ipfsCid",
              "type": "string"
            },
            {
              "internalType": "bytes32",
              "name": "reportHash",
              "type": "bytes32"
            },
            {
              "internalType": "bytes32",
              "name": "submissionNullifier",
              "type": "bytes32"
            },
            {
              "internalType": "bytes32",
              "name": "citizenPseudonym",
              "type": "bytes32"
            },
            {
              "internalType": "address",
              "name": "submittedByRelayer",
              "type": "address"
            },
            {
              "internalType": "enum Reporting.ReportStatus",
              "name": "status",
              "type": "uint8"
            },
            {
              "internalType": "uint256",
              "name": "createdAt",
              "type": "uint256"
            },
            {
              "internalType": "uint256",
              "name": "updatedAt",
              "type": "uint256"
            },
            {
              "internalType": "uint256",
              "name": "phaseDeadline",
              "type": "uint256"
            },
            {
              "internalType": "address",
              "name": "assignedAuthority",
              "type": "address"
            },
            {
              "components": [
                {
                  "internalType": "uint256",
                  "name": "validationUpvotes",
                  "type": "uint256"
                },
                {
                  "internalType": "uint256",
                  "name": "validationDownvotes",
                  "type": "uint256"
                },
                {
                  "internalType": "uint256",
                  "name": "verificationAcceptVotes",
                  "type": "uint256"
                },
                {
                  "internalType": "uint256",
                  "name": "verificationRejectVotes",
                  "type": "uint256"
                },
                {
                  "internalType": "uint256",
                  "name": "rejectionUpholdVotes",
                  "type": "uint256"
                },
                {
                  "internalType": "uint256",
                  "name": "rejectionAppealVotes",
                  "type": "uint256"
                }
              ],
              "internalType": "struct Reporting.VoteCounters",
              "name": "votes",
              "type": "tuple"
            }
          ],
          "internalType": "struct Reporting.Report[]",
          "name": "page",
          "type": "tuple[]"
        },
        {
          "internalType": "uint256",
          "name": "total",
          "type": "uint256"
        }
      ],
      "stateMutability": "view",
      "type": "function"
    },
    {
      "inputs": [
        {
          "internalType": "uint256[]",
          "name": "ids",
          "type": "uint256[]"
        }
      ],
      "name": "getReportsByIds",
      "outputs": [
        {
          "components": [
            {
              "internalType": "uint256",
              "name": "id",
              "type": "uint256"
            },
            {
              "internalType": "string",
              "name": "ipfsCid",
              "type": "string"
            },
            {
              "internalType": "bytes32",
              "name": "reportHash",
              "type": "bytes32"
            },
            {
              "internalType": "bytes32",
              "name": "submissionNullifier",
              "type": "bytes32"
            },
            {
              "internalType": "bytes32",
              "name": "citizenPseudonym",
              "type": "bytes32"
            },
            {
              "internalType": "address",
              "name": "submittedByRelayer",
              "type": "address"
            },
            {
              "internalType": "enum Reporting.ReportStatus",
              "name": "status",
              "type": "uint8"
            },
            {
              "internalType": "uint256",
              "name": "createdAt",
              "type": "uint256"
            },
            {
              "internalType": "uint256",
              "name": "updatedAt",
              "type": "uint256"
            },
            {
              "internalType": "uint256",
              "name": "phaseDeadline",
              "type": "uint256"
            },
            {
              "internalType": "address",
              "name": "assignedAuthority",
              "type": "address"
            },
            {
              "components": [
                {
                  "internalType": "uint256",
                  "name": "validationUpvotes",
                  "type": "uint256"
                },
                {
                  "internalType": "uint256",
                  "name": "validationDownvotes",
                  "type": "uint256"
                },
                {
                  "internalType": "uint256",
                  "name": "verificationAcceptVotes",
                  "type": "uint256"
                },
                {
                  "internalType": "uint256",
                  "name": "verificationRejectVotes",
                  "type": "uint256"
                },
                {
                  "internalType": "uint256",
                  "name": "rejectionUpholdVotes",
                  "type": "uint256"
                },
                {
                  "internalType": "uint256",
                  "name": "rejectionAppealVotes",
                  "type": "uint256"
                }
              ],
              "internalType": "struct Reporting.VoteCounters",
              "name": "votes",
              "type": "tuple"
            }
          ],
          "internalType": "struct Reporting.Report[]",
          "name": "",
          "type": "tuple[]"
        }
      ],
      "stateMutability": "view",
      "type": "function"
    },
    {
      "inputs": [],
      "name": "owner",
      "outputs": [
        {
          "internalType": "address",
          "name": "",
          "type": "address"
        }
      ],
      "stateMutability": "view",
      "type": "function"
    },
    {
      "inputs": [],
      "name": "renounceOwnership",
      "outputs": [],
      "stateMutability": "nonpayable",
      "type": "function"
    },
    {
      "inputs": [],
      "name": "reportCount",
      "outputs": [
        {
          "internalType": "uint256",
          "name": "",
          "type": "uint256"
        }
      ],
      "stateMutability": "view",
      "type": "function"
    },
    {
      "inputs": [
        {
          "internalType": "uint256",
          "name": "",
          "type": "uint256"
        }
      ],
      "name": "reports",
      "outputs": [
        {
          "internalType": "uint256",
          "name": "id",
          "type": "uint256"
        },
        {
          "internalType": "string",
          "name": "ipfsCid",
          "type": "string"
        },
        {
          "internalType": "bytes32",
          "name": "reportHash",
          "type": "bytes32"
        },
        {
          "internalType": "bytes32",
          "name": "submissionNullifier",
          "type": "bytes32"
        },
        {
          "internalType": "bytes32",
          "name": "citizenPseudonym",
          "type": "bytes32"
        },
        {
          "internalType": "address",
          "name": "submittedByRelayer",
          "type": "address"
        },
        {
          "internalType": "enum Reporting.ReportStatus",
          "name": "status",
          "type": "uint8"
        },
        {
          "internalType": "uint256",
          "name": "createdAt",
          "type": "uint256"
        },
        {
          "internalType": "uint256",
          "name": "updatedAt",
          "type": "uint256"
        },
        {
          "internalType": "uint256",
          "name": "phaseDeadline",
          "type": "uint256"
        },
        {
          "internalType": "address",
          "name": "assignedAuthority",
          "type": "address"
        },
        {
          "components": [
            {
              "internalType": "uint256",
              "name": "validationUpvotes",
              "type": "uint256"
            },
            {
              "internalType": "uint256",
              "name": "validationDownvotes",
              "type": "uint256"
            },
            {
              "internalType": "uint256",
              "name": "verificationAcceptVotes",
              "type": "uint256"
            },
            {
              "internalType": "uint256",
              "name": "verificationRejectVotes",
              "type": "uint256"
            },
            {
              "internalType": "uint256",
              "name": "rejectionUpholdVotes",
              "type": "uint256"
            },
            {
              "internalType": "uint256",
              "name": "rejectionAppealVotes",
              "type": "uint256"
            }
          ],
          "internalType": "struct Reporting.VoteCounters",
          "name": "votes",
          "type": "tuple"
        }
      ],
      "stateMutability": "view",
      "type": "function"
    },
    {
      "inputs": [
        {
          "internalType": "address",
          "name": "authority",
          "type": "address"
        },
        {
          "internalType": "bool",
          "name": "authorized",
          "type": "bool"
        }
      ],
      "name": "setAuthority",
      "outputs": [],
      "stateMutability": "nonpayable",
      "type": "function"
    },
    {
      "inputs": [
        {
          "internalType": "address",
          "name": "relayer",
          "type": "address"
        },
        {
          "internalType": "bool",
          "name": "authorized",
          "type": "bool"
        }
      ],
      "name": "setRelayer",
      "outputs": [],
      "stateMutability": "nonpayable",
      "type": "function"
    },
    {
      "inputs": [
        {
          "internalType": "uint256",
          "name": "duration",
          "type": "uint256"
        }
      ],
      "name": "setVotingWindowDuration",
      "outputs": [],
      "stateMutability": "nonpayable",
      "type": "function"
    },
    {
      "inputs": [
        {
          "internalType": "string",
          "name": "ipfsCid",
          "type": "string"
        },
        {
          "internalType": "bytes32",
          "name": "reportHash",
          "type": "bytes32"
        },
        {
          "internalType": "bytes32",
          "name": "submissionNullifier",
          "type": "bytes32"
        },
        {
          "internalType": "bytes32",
          "name": "citizenPseudonym",
          "type": "bytes32"
        }
      ],
      "name": "submitReport",
      "outputs": [
        {
          "internalType": "uint256",
          "name": "reportId",
          "type": "uint256"
        }
      ],
      "stateMutability": "nonpayable",
      "type": "function"
    },
    {
      "inputs": [
        {
          "internalType": "address",
          "name": "newOwner",
          "type": "address"
        }
      ],
      "name": "transferOwnership",
      "outputs": [],
      "stateMutability": "nonpayable",
      "type": "function"
    },
    {
      "inputs": [
        {
          "internalType": "uint256",
          "name": "",
          "type": "uint256"
        },
        {
          "internalType": "bytes32",
          "name": "",
          "type": "bytes32"
        }
      ],
      "name": "usedRejectionReviewVoteNullifiers",
      "outputs": [
        {
          "internalType": "bool",
          "name": "",
          "type": "bool"
        }
      ],
      "stateMutability": "view",
      "type": "function"
    },
    {
      "inputs": [
        {
          "internalType": "bytes32",
          "name": "",
          "type": "bytes32"
        }
      ],
      "name": "usedSubmissionNullifiers",
      "outputs": [
        {
          "internalType": "bool",
          "name": "",
          "type": "bool"
        }
      ],
      "stateMutability": "view",
      "type": "function"
    },
    {
      "inputs": [
        {
          "internalType": "uint256",
          "name": "",
          "type": "uint256"
        },
        {
          "internalType": "bytes32",
          "name": "",
          "type": "bytes32"
        }
      ],
      "name": "usedValidationVoteNullifiers",
      "outputs": [
        {
          "internalType": "bool",
          "name": "",
          "type": "bool"
        }
      ],
      "stateMutability": "view",
      "type": "function"
    },
    {
      "inputs": [
        {
          "internalType": "uint256",
          "name": "",
          "type": "uint256"
        },
        {
          "internalType": "bytes32",
          "name": "",
          "type": "bytes32"
        }
      ],
      "name": "usedVerificationVoteNullifiers",
      "outputs": [
        {
          "internalType": "bool",
          "name": "",
          "type": "bool"
        }
      ],
      "stateMutability": "view",
      "type": "function"
    },
    {
      "inputs": [],
      "name": "votingWindowDuration",
      "outputs": [
        {
          "internalType": "uint256",
          "name": "",
          "type": "uint256"
        }
      ],
      "stateMutability": "view",
      "type": "function"
    }
  ],
  "bytecode": "0x608080604052346101195733156101035760008054336001600160a01b0319821681178355916001600160a01b03909116907f8be0079c531659141344cd1fd0a4f28419497f9722a3daafe3b4186f6b6457e09080a360017f9b779b17422d0df92223018b32b4d1fa46e071723d6817e2486d003becc55f0081905561a8c06002557fffced037fd9cc4eef1441f7b8f1269f63a58cec3d6ef42ad364be361bae63996805460ff19908116831790915573ee8670a4d50cdcf0afe7c99bf9a45976baf576c2600052600a6020527f7b1484995d2ffa0c8abb2c2dc7f344bf8cdc8749b75d469795312c840baf74bb80549091169091179055611606908161011f8239f35b631e4fbdf760e01b600052600060045260246000fd5b600080fdfe608080604052600436101561001357600080fd5b60003560e01c90816318574bfd14610d5057508063185c6f8414610d3257806329e295c514610cf3578063314f890614610cbb5780634763747314610c9c5780634bcbae7e14610c705780634e7f9b1914610b63578063542de955146107615780635d098abb1461059f57806366dc40151461056057806368a2c3ad146104b4578063715018a61461045b5780638d1a2a971461042a5780638da5cb5b146104015780639c000299146103c95780639fbeed0a14610397578063b5f0d35c14610357578063c942adf71461023a578063dc75e59914610202578063ecd8dc3a146101c0578063eea0c52e1461019f5763f2fde38b1461011157600080fd5b3461019a57602036600319011261019a5761012a610d6b565b6101326115a7565b6001600160a01b0316801561018457600080546001600160a01b03198116831782556001600160a01b0316907f8be0079c531659141344cd1fd0a4f28419497f9722a3daafe3b4186f6b6457e09080a3005b631e4fbdf760e01b600052600060045260246000fd5b600080fd5b3461019a57602036600319011261019a576101b86115a7565b600435600255005b3461019a576102006101d136610f3a565b906101da6115a7565b60018060a01b0316600052600960205260406000209060ff801983541691151516179055565b005b3461019a5761021036610d81565b906000526008602052604060002090600052602052602060ff604060002054166040519015158152f35b3461019a57602036600319011261019a576004356000526003602052610220604060002080549061035361027060018301611014565b6002830154926003810154600482015460058301546102fc6006850154916007860154936008870154956102ce6102b6600a60018060a01b0360098c0154169a016110b8565b996040519e8f9e8f9081528160208201520190610d97565b9a60408d015260608c015260808b015260018060a01b03811660a08b015260ff60c08b019160a01c16610dd8565b60e08801526101008701526101208601526101408501528051610160850152602081015161018085015260408101516101a085015260608101516101c085015260808101516101e085015260a00151610200840152565b0390f35b3461019a5761020061036836610f3a565b906103716115a7565b60018060a01b0316600052600a60205260406000209060ff801983541691151516179055565b3461019a57606036600319011261019a576103b9604435602435600435611411565b9061035360405192839283610f1e565b3461019a576103d736610d81565b906000526007602052604060002090600052602052602060ff604060002054166040519015158152f35b3461019a57600036600319011261019a576000546040516001600160a01b039091168152602090f35b3461019a57602036600319011261019a576004356000526005602052602060ff604060002054166040519015158152f35b3461019a57600036600319011261019a576104746115a7565b600080546001600160a01b0319811682556001600160a01b03167f8be0079c531659141344cd1fd0a4f28419497f9722a3daafe3b4186f6b6457e08280a3005b3461019a57602036600319011261019a57600435600052600460205260406000206040518060208354918281520190819360005260206000209060005b81811061054a5750505081610507910382610ff2565b6040519182916020830190602084525180915260408301919060005b818110610531575050500390f35b8251845285945060209384019390920191600101610523565b82548452602090930192600192830192016104f1565b3461019a57602036600319011261019a576001600160a01b03610581610d6b565b16600052600a602052602060ff604060002054166040519015158152f35b3461019a57602036600319011261019a5760043567ffffffffffffffff811161019a573660238201121561019a5780600401359067ffffffffffffffff821161019a576024810190602436918460051b01011161019a576105ff826111e6565b9160005b818110610620576040516020808252819061035390820187610ec5565b61062b818385611401565b3515801561074b575b61073a57610643818385611401565b35600052600360205260406000209060405161065e81610fa3565b8254815261066e60018401611014565b602082015260028301546040820152600383015460608201526004830154608082015260058301546001600160a01b03811660a0808401919091521c60ff169260088410156107245760c0820193909352600683015460e08201526007830154610100820152600883015461012082015260098301546001600160a01b031661014082015260019261070290600a016110b8565b6101608201526107128287611243565b5261071d8186611243565b5001610603565b634e487b7160e01b600052602160045260246000fd5b630828ea1360e11b60005260046000fd5b50610757818385611401565b3560015410610634565b3461019a57608036600319011261019a5760043567ffffffffffffffff811161019a573660238201121561019a57806004013567ffffffffffffffff811161019a57366024828401011161019a57602435604435906064359333600052600960205260ff6040600020541615610b535760027f9b779b17422d0df92223018b32b4d1fa46e071723d6817e2486d003becc55f005414610b425760027f9b779b17422d0df92223018b32b4d1fa46e071723d6817e2486d003becc55f00558315610b31578115610b21578215610b10578415610aff5782600052600560205260ff60406000205416610aee578260005260056020526040600020600160ff198254161790556001546000198114610ad8576001019384600155846000526003602052604060002095858755600187019660009761089d8154610f69565b601f8111610a93575b508389601f8211600114610a2a578a91610a1c575b508460011b906000198660031b1c19161790555b84600282015585600382015581600482015560058101336bffffffffffffffffffffffff60a01b82541617815560ff60a01b198154169055426006820155426007820155600254420190814211610a085760080155808752600460205260408720805490680100000000000000008210156109f457937faee47cd7ca1337431f1415cd26d033e6c2f0a74884ac42b0c13755b4b28841559360249360209a610980858c9960016080980181556113e9565b81549060031b908a821b91600019901b1916179055826040519687956060875282606088015201868601378383018501528a830152426040830152601f01601f19168101030190a460017f9b779b17422d0df92223018b32b4d1fa46e071723d6817e2486d003becc55f0055604051908152f35b634e487b7160e01b89526041600452602489fd5b634e487b7160e01b89526011600452602489fd5b60249150860101358a6108bb565b828b5260208b20915085601f1981168c5b818110610a75575010610a58575b5050600184811b0190556108cf565b860160240135600019600387901b60f8161c191690558980610a49565b89840160240135855560019094019360209384019389935001610a3b565b818a5260208a20601f860160051c81019160208710610ace575b601f0160051c01905b818110610ac357506108a6565b8a8155600101610ab6565b9091508190610aad565b634e487b7160e01b600052601160045260246000fd5b636569570160e11b60005260046000fd5b63b94b25c760e01b60005260046000fd5b632ec8265960e11b60005260046000fd5b6257c03760e51b60005260046000fd5b63063ee91d60e41b60005260046000fd5b633ee5aeb560e01b60005260046000fd5b6282b42960e81b60005260046000fd5b3461019a57602036600319011261019a57600435610b7f611116565b5080158015610c65575b61073a5760005260036020526040600020604051610ba681610fa3565b81548152610bb660018301611014565b602082015260028201546040820152600382015460608201526004820154608082015260058201546001600160a01b03811660a0808401919091521c60ff169160088310156107245760c0820192909252600682015460e08201526007820154610100820152600882015461012082015260098201546001600160a01b031661014082015261035391610c4b90600a016110b8565b610160820152604051918291602083526020830190610de5565b506001548111610b89565b3461019a57602036600319011261019a5760043560005260046020526020604060002054604051908152f35b3461019a57604036600319011261019a576103b960243560043561126d565b3461019a57610cc936610d81565b906000526006602052604060002090600052602052602060ff604060002054166040519015158152f35b3461019a57602036600319011261019a576001600160a01b03610d14610d6b565b166000526009602052602060ff604060002054166040519015158152f35b3461019a57600036600319011261019a576020600154604051908152f35b3461019a57600036600319011261019a576020906002548152f35b600435906001600160a01b038216820361019a57565b604090600319011261019a576004359060243590565b919082519283825260005b848110610dc3575050826000602080949584010152601f8019910116010190565b80602080928401015182828601015201610da2565b9060088210156107245752565b90610ec2908251815261016080610e0d60208601516102206020860152610220850190610d97565b9460408101516040850152606081015160608501526080810151608085015260018060a01b0360a08201511660a0850152610e5060c082015160c0860190610dd8565b60e081015160e085015261010081015161010085015261012081015161012085015260018060a01b0361014082015116610140850152015191019060a0809180518452602081015160208501526040810151604085015260608101516060850152608081015160808501520151910152565b90565b9080602083519182815201916020808360051b8301019401926000915b838310610ef157505050505090565b9091929394602080610f0f600193601f198682030187528951610de5565b97019301930191939290610ee2565b929190610f35602091604086526040860190610ec5565b930152565b604090600319011261019a576004356001600160a01b038116810361019a5790602435801515810361019a5790565b90600182811c92168015610f99575b6020831014610f8357565b634e487b7160e01b600052602260045260246000fd5b91607f1691610f78565b610180810190811067ffffffffffffffff821117610fc057604052565b634e487b7160e01b600052604160045260246000fd5b60c0810190811067ffffffffffffffff821117610fc057604052565b90601f8019910116810190811067ffffffffffffffff821117610fc057604052565b906040519182600082549261102884610f69565b8084529360018116908115611096575060011461104f575b5061104d92500383610ff2565b565b90506000929192526020600020906000915b81831061107a57505090602061104d9282010138611040565b6020919350806001915483858901015201910190918492611061565b90506020925061104d94915060ff191682840152151560051b82010138611040565b906040516110c581610fd6565b60a06005829480548452600181015460208501526002810154604085015260038101546060850152600481015460808501520154910152565b67ffffffffffffffff8111610fc05760051b60200190565b6040519061112382610fa3565b816000815260606020820152600060408201526000606082015260006080820152600060a0820152600060c0820152600060e08201526000610100820152600061012082015260006101408201526101606040519161118183610fd6565b6000835260006020840152600060408401526000606084015260006080840152600060a08401520152565b604051906111bb602083610ff2565b600080835282815b8281106111cf57505050565b6020906111da611116565b828285010152016111c3565b906111f0826110fe565b6111fd6040519182610ff2565b828152809261120e601f19916110fe565b019060005b82811061121f57505050565b60209061122a611116565b82828501015201611213565b91908203918211610ad857565b80518210156112575760209160051b010190565b634e487b7160e01b600052603260045260246000fd5b91811580156113df575b6113ce5760015491821580156113c4575b6113b4576112968484611236565b90808210156113ad57505b6112b46112ad826111e6565b9484611236565b60005b8281106112c357505050565b6112cd8183611236565b60005260036020526040600020906040516112e781610fa3565b825481526112f760018401611014565b602082015260028301546040820152600383015460608201526004830154608082015260058301546001600160a01b03811660a0808401919091521c60ff169260088410156107245760c0820193909352600683015460e08201526007830154610100820152600883015461012082015260098301546001600160a01b031661014082015260019261138b90600a016110b8565b61016082015261139b8289611243565b526113a68188611243565b50016112b7565b90506112a1565b509091506113c06111ac565b9190565b5082841015611288565b633d47273b60e01b60005260046000fd5b5060648211611277565b80548210156112575760005260206000200190600090565b91908110156112575760051b0190565b9290928215801561159d575b6113ce576000526004602052604060002080549283158015611593575b611586576114488585611236565b908082101561157e5750905b61145d826111e6565b94600019850190858211610ad85761147491611236565b60005b8381106114845750505050565b6114976114918284611236565b846113e9565b90549060031b1c60005260036020526040600020906040516114b881610fa3565b825481526114c860018401611014565b602082015260028301546040820152600383015460608201526004830154608082015260058301546001600160a01b03811660a0808401919091521c60ff169260088410156107245760c0820193909352600683015460e08201526007830154610100820152600883015461012082015260098301546001600160a01b031661014082015260019261155c90600a016110b8565b61016082015261156c828a611243565b526115778189611243565b5001611477565b905090611454565b50509091506113c06111ac565b508385101561143a565b506064831161141d565b6000546001600160a01b031633036115bb57565b63118cdaa760e01b6000523360045260246000fdfea26469706673582212200d139c4423d39eac8677c1a071b678ac2ee75d1bf5421cc85295380a5b92f82464736f6c634300081c0033",
  "linkReferences": {},
  "deployedLinkReferences": {},
  "immutableReferences": {},
  "inputSourceName": "project/contracts/Reporting.sol",
  "buildInfoId": "solc-0_8_28-de031d1f6c1cb448c2dcce3da0f3069981a20227"
}